:020000040001F9
:10600000D8360020A1610100BB610100BD61010023
:106010000000000000000000000000000000000080
:10602000000000000000000000000000BF6101004F
:106030000000000000000000C1610100C361010018
:10604000C5610100C5610100C5610100C5610100B4
:10605000C561010000000000C5610100C5610100CB
:10606000C5610100C5610100C5610100C561010094
:10607000C5610100C5610100C5610100C561010084
:10608000C5610100E3870100C5610100C561010030
:1060900005880100C56101007B8C0100C56101001C
:1060A000C5610100C56101000000000000000000A2
:1060B00000000000000000000000000000000000E0
:1060C00000F002F800F031F80CA030C808382418AD
:1060D0002D18A246671EAB4654465D46AC4201D120
:1060E00000F023F87E460F3E0FCCB6460126334221
:1060F00000D0FB1AA246AB4633431847C4530000F6
:10610000D4530000103A02D378C878C1FAD85207A5
:1061100001D330C830C101D504680C6070471FB589
:10612000C046C0461FBD10B510BD05F045F911466B
:10613000FFF7F5FF00F0F4FD05F05DF903B4FFF79C
:10614000F2FF03BC05F062F9401E00BF00BF00BFB4
:1061500000BF00BF00BF00BF00BF00BF00BF00BF47
:1061600000BFF1D17047000070B505460C461646D9
:1061700002E00FCC0FC5103E102EFAD2082E02D32B
:1061800003CC03C5083E042E07D301CC01C5361F3E
:1061900003E021782970641C6D1C761EF9D270BD55
:1061A00003210C4802680A4302600B4802680A4354
:1061B00002600A4880470A480047FEE7FEE7FEE71C
:1061C000FEE7FEE7FEE7000006480749074A084BDE
:1061D000704700002405004054050040996201000A
:1061E000C1600100D8260020D8360020D82E00201B
:1061F000D82E002032483349086070473248008C5E
:10620000C0B2012812D13048808C0007000F00284E
:106210000CD12D48806AF0210840402806D12A4838
:10622000C06A0840002801D1012070470020FCE727
:106230002548008CC0B201282CD12348808C00074F
:10624000000F002826D12048806AF021084000284D
:1062500006D11D48C06A0840002801D101207047BE
:106260001948806AF0210840102806D11648C06AF3
:106270000840002801D10120F1E71348806AF0218D
:106280000840302806D11048C06A0840002801D1D3
:106290000120E4E70020E2E710B5FFF7C9FF00287E
:1062A00005D00A480A494860C8130A498861FFF7BF
:1062B000A5FF002802D001200749886010BD00001A
:1062C0000024F40000200020C00F00F0DFFF07C012
:1062D00000050040006C00400006004030B513048B
:1062E0008C0023430524240707252D02641985000B
:1062F000635130BD0F2000F038FD00BFBFF34F8F5A
:10630000FD48FE49C860BFF34F8F00BF00BFFEE7E6
:1063100004460D462A462146F948FFF7EBFF70B5C3
:10632000F849F94801F04DFEC5B22946F74801F099
:106330008AF80446002C0DD0082C0BD0F448844277
:1063400008D0F448844205D000BFF3A2BC21204607
:10635000FFF7D0FF70BD10B50446FFF7E0FF10BD9A
:1063600070B50646EF49F04801F02BFE85B2EF48C4
:106370000068401CED4908602946ED4801F052FADA
:106380000446002C0DD0082C0BD0E148844208D0E4
:10639000E048844205D000BFDFA2E9212046FFF794
:1063A000A9FF0321E148006804F056FF002901D04D
:1063B000012000E00020DF49087070BD70B505467F
:1063C000DC480078002809D0DB49DC4801F0F9FD01
:1063D00084B22146D64801F054FA00BF70BD10B512
:1063E0000446D748007801214840D549087008463E
:1063F0000178CF4801F076FA10BD10B5082000F002
:10640000ABFC092000F0A8FC0F2000F0A5FC10BD9B
:10641000F8B500BF0020CB4B05221146009002F0DA
:10642000F5F9054600BF2E46002E06D000BFBAA2E1
:10643000FF2131313046FFF75DFF00BF00BFC24A88
:106440000121C24802F05FFA044600BF2546002D34
:1064500006D000BFB0A2FF2137312846FFF74AFF20
:1064600000BFBB4A0121BB4802F04DFA044600BF01
:106470002546002D06D000BFA7A2FF213C312846AB
:10648000FFF738FF00BFB44A0121B44802F03BFADD
:10649000044600BF2546002D06D000BF9EA2FF2166
:1064A00041312846FFF726FF00BFAD4A0121AD4824
:1064B00002F029FA044600BF2546002D06D000BF91
:1064C00095A2FF2146312846FFF714FF00BFF8BD13
:1064D0003EB500BF6846007801090901491C0091DA
:1064E00068460078F02188431030009000BF0A22EF
:1064F0009DA168467CDF044600BF2546002D06D0DE
:1065000000BF85A2FF215A312846FFF7F3FE00BFE6
:10651000984878DF044600BF2546002D06D000BF0E
:106520007DA2FF215D312846FFF7E4FE00BF002079
:1065300001900290FF219131684681804900C1801D
:1065400000210181FF219131418101A87ADF0446B8
:1065500000BF2546002D06D000BF6FA2FF21673186
:106560002846FFF7C7FE00BF3EBD30B593B00621F9
:106570000491814A07CA01AB07C3382105A804F07A
:1065800069FE02216846017501218175018304A914
:1065900007910321818501A90C91002105A801F033
:1065A00077FC044600BF2546002D06D000BF5AA246
:1065B000FF2188312846FFF79DFE00BF14216F4858
:1065C00004F048FE00206D490870486008722820D9
:1065D0000882B420488213B030BD30B59BB003218F
:1065E0000091142116A804F035FE00201690012118
:1065F00010A801776846189000BF18A80079010913
:106600000901491C18A801710079F0218843103054
:1066100018A9087100BF00BF16A8407B000900013F
:1066200016A9487316A8407BF021884316A9487321
:1066300000BF00BF16A8807B00090001887316A860
:10664000807BF021884316A9887300BF00BF18A87B
:10665000C07901090901491C18A8C171C079F0214C
:106660008843103018A9C87100BF00BF16A8007C6D
:106670000009000116A9087416A8007CF0218843BF
:1066800016A9087400BF2A4801F096F8044600BF16
:106690002546002D06D000BF1FA2FF21B33128469A
:1066A000FFF728FE00BF142111A804F0D3FD00BF9E
:1066B00010A8407C01090901491C10A84174407CC4
:1066C000F0218843103010A9487400BF00BF11A802
:1066D000807B00090001401C11A9887311A8807BF0
:1066E000F0218843103011A9887300BF00BF11A8A2
:1066F000C07B0009000143E00400FA0500ED00E062
:10670000EFBEADDE7C2100200820002014210020F7
:1067100004300000013400002E2E5C6D61696E2E85
:10672000630000008C210020102000203420002075
:106730002C210020062000209C2100201820002071
:1067400038200020AC2100205763010020200020C9
:106750006163010024200020BD6301002820002087
:10676000DF6301002C2000204E6F726469635F4874
:10677000524D00004103000038B401000021002008
:10678000C87311A8C07BF021884311A9C87300BF4A
:1067900000BF10A8007D01090901491C10A801755E
:1067A000007DF0218843103010A9087500BF00203B
:1067B0001190012110A8017200201390642110A8EB
:1067C000017411A9F64800F01DFE044600BF2546DD
:1067D000002D06D000BFF34AFF21C5312846FFF740
:1067E00089FD00BF402101A804F034FDEEA101A8FD
:1067F00001F0B4FB00BF10A8007801090901491C91
:1068000010A801700078F0218843103010A908709A
:1068100000BF00BF10A8407800090001487010A810
:106820004078F021884310A9487000BF01A800F00B
:10683000C1FB044600BF2546002D06D000BFD94A43
:10684000FF21D0312846FFF755FD00BF1BB030BDFA
:1068500010B55120D9490860642048600120886043
:106860000873D74801F0A0FB8C20D6490860FF20B0
:106870002D3048600A20886000200873D24801F05B
:1068800093FB6420D1490860FF20F5304860012067
:10689000886000200873CE4801F086FB10BD70B5FB
:1068A000002201210904CB48006802F073F8044675
:1068B00000BF2546002D06D000BFBA4AFF21F731A0
:1068C0002846FFF717FD00BF00220121C903C24877
:1068D000006802F05FF8044600BF2546002D06D090
:1068E00000BFB04AFF21FA312846FFF703FD00BF81
:1068F0000022BA49BA48006802F04CF8044600BFCA
:106900002546002D06D000BFA64AFF21FD312846AE
:10691000FFF7F0FC00BF00220521C903B148006861
:1069200002F038F8044600BF2546002D05D000BF10
:106930009C4AAD492846FFF7DDFC00BF70BD38B565
:10694000684603F090F9044600BF2546002D06D0A6
:1069500000BF944AA4490E312846FFF7CBFC00BF84
:106960000098002803D00120A049087038BDA04835
:1069700073DF044600BF2546002D06D000BF894ABC
:10698000994917312846FFF7B5FC00BF082000F0F1
:10699000ECF900BFEAE770B505462878002810D169
:1069A0003B219448008876DF044600BF2646002E2F
:1069B00006D000BF7B4A8C492E313046FFF79AFC47
:1069C00000BF70BD044600BF764A4721C90020467B
:1069D000FFF790FC30B587B01C21684604F03AFC04
:1069E000002000900520C00301900F2000040290B9
:1069F000032168460173804881896846C18100216E
:106A000001747E4805907E480690684602F0CDF9F4
:106A1000044600BF2546002D06D000BF614A7249DA
:106A200050312846FFF766FC00BF07B030BD70B597
:106A300004462088102804D011280CD0192825D10C
:106A40000FE0092000F091F9082000F093F9A088E8
:106A5000684908801BE0092000F08CF9FFF76FFF00
:106A600015E0A079002810D1082000F083F934DF68
:106A7000054600BF2E46002E06D000BF494A5A499F
:106A800073313046FFF736FC00BF00E000BF00BFA7
:106A900070BD10B50446022C02D0032C0BD100E0CF
:106AA00000BF52480078002804D000204F490870E9
:106AB000FFF745FF00E000BF00BF10BD10B5044662
:106AC000204603F0ACFF21464B4800F032FD214642
:106AD000334800F09AFB204602F03BFA2046FFF7CD
:106AE000A6FF10BD10B50446204602F028FD204642
:106AF000FFF7CFFF10BDF8B500BF0023502241497A
:106B0000082002F072F8054600BF2E46002E06D07F
:106B100000BF244A3449BB313046FFF7EBFB00BFCE
:106B200000BF002000900090684660DF044600BF70
:106B30002546002D06D000BF1A4A2B49C3312846EE
:106B4000FFF7D8FB00BF304802F085F8044600BFCD
:106B50002546002D06D000BF124A2349C8312846D9
:106B6000FFF7C8FB00BF294802F07EF8044600BFCB
:106B70002546002D06D000BF0A4A1B49CC312846C5
:106B8000FFF7B8FB00BFF8BD10B50322002108468F
:106B9000FFF7A4FB032200210120FFF79FFB10BD9C
:106BA00014210020186701004E6F726469635365F9
:106BB0006D69636F6E647563746F72007C21002071
:106BC000082000208C210020102000209C21002083
:106BD000182000202020002024200020662600000D
:106BE000282000202C200020FF0100003120002060
:106BF00000210020042000202C21002097690100A2
:106C0000C56901003C240020BD6A0100E56A01005D
:106C1000F8B506460F46144600BF2546002D05D0A0
:106C200000BF574A57492846FFF764FB00BF0020C2
:106C3000F8BD7FB502F026FD044600BF2546002DB5
:106C400006D000BF4E4A4F490F312846FFF752FB8E
:106C500000BF01204C490969C1400140002900D111
:106C600000E00020039003A803F076FA044600BF7A
:106C70002546002D06D000BF414A4249153128461D
:106C8000FFF738FB00BF062101A8023004F0E0FA4C
:106C90001E216846C180007A40084000401C6946B9
:106CA00008726846007A022188436946087268467D
:106CB000007A1C2188430C30694608726846007AC5
:106CC00020218843694608720721684641721021D5
:106CD00081722E48009001216846017169462C4856
:106CE00003F0A9FA044600BF2546002D06D000BFD8
:106CF000234A244924312846FFF7FCFA00BF7FBD10
:106D000070B540DF044600BF2546002D06D000BF09
:106D10001B4A1C492D312846FFF7ECFA00BF70BD15
:106D2000FFF76BFBFFF730FFFFF7E5FEFFF770FBA8
:106D3000FFF77FFFFFF7CCFBFFF717FCFFF74DFCDA
:106D4000FFF786FDFFF746FEFFF7A9FDFFF7F7FD0A
:106D500000BFFFF7D5FFFCE7032105221207072339
:106D60001B02D2188300D150704701218140064A8E
:106D70009160704701218140034AD1607047000053
:106D800018670100E602000000050050116C0100C8
:106D90003020002070B504460D4600BF002D01D004
:106DA000012000E000200646002E05D100BFE6A22B
:106DB0003321FFF79FFA00BF00BF00BF002C01D0B6
:106DC000012000E000200646002E05D100BFDEA213
:106DD0003421FFF78FFA00BF00BF28782070298880
:106DE0002879FF231B02194000200206080A1043DD
:106DF000607028791B022968194000200204080CE1
:106E00001043A07029791B0228681840002109024C
:106E1000000E0843E07028792071287A6071190CFF
:106E2000A8680840000AA0710902A8680840000C80
:106E3000E07170BDF8B505460E46002400BF002E77
:106E400001D0012000E000200746002F05D100BF3F
:106E5000BDA24B21FFF74EFA00BF00BF00BF002DBF
:106E600001D0012000E000200746002F05D100BF1F
:106E7000B5A24C21FFF73EFA00BF00BF3278204692
:106E8000611CCCB22A542919708800F054F90019F9
:106E9000C4B22919B08800F04EF90019C4B22919FA
:106EA000F08800F048F90019C4B200BF072C01D1E6
:106EB000012000E000200746002F05D100BFA2A25C
:106EC0005421FFF717FA00BF00BFF8BDF0B58FB02F
:106ED00007460D4614461E4600BF002D01D0012076
:106EE00000E0002000900098002805D100BF96A285
:106EF0006D21FFF7FFF900BF00BF00BF002C01DDCF
:106F0000012000E0002000900098002805D100BF7B
:106F10008DA26E21FFF7EEF900BF00BF1C2107A86C
:106F200004F098F96946087F02218843801C69466D
:106F30000877002008900A900B900C900D9000BFED
:106F4000012108A881766846078700BF00200190CC
:106F500031786846017171784171807906218843E2
:106F6000811C684681718079082188430146684602
:106F7000817180791021884301466846817180794A
:106F80004108490068468171142102A804F062F9A1
:106F90000EA8029001A80390684604820021418255
:106FA0008482069502AA07A974480088149BA2DF70
:106FB0000FB0F0BD7FB5044600BF01216846817364
:106FC0006F49818100BF6D4A03A90120A0DF0546FA
:106FD000002D02D0284604B070BD208800280DDDA9
:106FE00068480090228823463C3367486168FFF771
:106FF0006DFF0546002D01D02846ECE720890028CA
:107000000EDD62480090228923463C335E48401FD3
:10701000E168FFF75BFF0546002D01D02846DAE75F
:10702000208A00280EDD5A480090228A23463C33ED
:107030005548001F6169FFF749FF0546002D01D043
:107040002846C8E7208B00280EDD52480090228B8E
:1070500023463C334C48801EE169FFF737FF054665
:10706000002D01D02846B6E7208C00280EDD4A48C6
:107070000090228C23463C334348C01E616AFFF7D0
:1070800025FF0546002D01D02846A4E7208D0028C5
:107090000EDD42480090228D23463C333A48401E84
:1070A000E16AFFF713FF0546002D01D0284692E75D
:1070B000206B002813D001A8216BFFF76BFE384826
:1070C00023463C33082201A900902F48801FFFF778
:1070D000FDFE0546002D01D028467CE700BF606B11
:1070E00000280FD02F480090606B027923463C3374
:1070F00001682548401CFFF7E9FE0546002D01D038
:10710000284668E7A06B002813D001A8A16BFFF701
:1071100091FE254823463C33072201A900901A48D6
:107120002730FFF7D3FE0546002D01D0284652E751
:1071300000BF00204FE702460A70FF200002104007
:1071400000124870022070472E2E5C2E2E5C2E2ED0
:107150005C2E2E5C2E2E5C536F757263655C626CC8
:10716000655C626C655F73657276696365735C62AA
:107170006C655F6469732E63000000003A20002094
:107180000A1800003C200020292A0000442000208A
:107190004C200020542000205C200020642000208F
:1071A0006C200020742000207C2000208A884282ED
:1071B00070470022D24342827047F8B504460E461B
:1071C000207D002820D0B51D2988608981421AD1F0
:1071D000288B022817D12068002814D000BF00BFD8
:1071E000A97EEA7E120211430846C107C90F002991
:1071F00002D00020009001E0012000906946204666
:107200002268904700BF00BFF8BD70B505460C4628
:107210002088102804D0112807D050280FD109E069
:1072200021462846FFF7C2FF0AE021462846FFF71D
:10723000C0FF05E021462846FFF7BFFF00E000BF82
:1072400000BF70BDF0B591B004460D46207D00280A
:1072500019D00020099000BF08A800790109090190
:10726000491C08A801710079F0218843103008A951
:10727000087100BF697B08A84171807906218843A5
:10728000801C08A988711C210AA803F0E3FF08A844
:10729000007A02218843811C08A80172007A10211B
:1072A0008843217D002901D0012100E0002109014E
:1072B00010221140084308A9087200200B900D907D
:1072C0000E90207D002801D009A800E000200F903A
:1072D0000020109000BF01216846817377498181A9
:1072E00000BF00200290A97B68460172E97B4172D1
:1072F000807A06218843811C68468172807A082141
:107300008843014668468172807A1021884301468D
:1073100068468172807A4108490068468172297BFB
:107320000191142104A803F095FF03A8049002A87A
:107330000590012168460183002141830121818359
:1073400001A80890A088A31D04AA0AA9A2DF0646E6
:10735000002E02D0304611B0F0BDA86800284DD0F4
:1073600000BF0121684681735549818100BF00201B
:107370000290287C6946087200BF6846407A01097D
:10738000090168464172407AF02188436946487293
:1073900000BF6846807A06218843811C6846817256
:1073A000807A08218843014668468172807A1021DC
:1073B0008843014668468172807A410849006846E0
:1073C0008172A96800F0ACFD0746142104A803F0FF
:1073D00041FF03A8049002A8059068460783002196
:1073E0004183018B81830890E08822460E3204A9F4
:1073F000A3DF0646002E03D03046ACE70020E08134
:107400000020A8E7F8B504460D4628682060002053
:10741000C043608228792075FF20207400BF0121BD
:10742000684681702749018000BF221D69460120FE
:10743000A0DF0646002E01D03046F8BD2946204682
:10744000FFF700FFF9E733B585B004460025207C3F
:107450006946097E88422FD0012104916846007E4A
:107460002074E08806AB04AA0021A4DF0546002DA5
:1074700002D0284607B030BD608A1349884219D02F
:10748000207D002816D000200090019002900390EB
:1074900001210491E1886846018001218170002169
:1074A000818004A8029006A80390608A6946A6DF3E
:1074B000054600E0082500BF2846DBE7192A000042
:1074C000082900000F180000FFFF00008A880284CE
:1074D00070470022D2430284704738B505460C46F7
:1074E000208B022817D12868002814D000BF00BFC5
:1074F000A17EE27E120211430846C107C90F00298E
:1075000002D00020009001E001200090694628464A
:107510002A68904700BF38BD70B504460D46AE1DC1
:107520003188A089814203D131462046FFF7D5FF3B
:1075300070BD70B505460C462088102804D011286F
:1075400007D050280FD109E021462846FFF7BEFF9B
:107550000AE021462846FFF7BCFF05E02146284601
:10756000FFF7DAFF00E000BF00BF70BDF7B582B0E3
:10757000044617460020019001256079002803D0B9
:1075800004210198084301902220005D002803D0C7
:1075900002210198084301900398FF280ADD012188
:1075A0000198084301907919039800F0AAF940194D
:1075B000C5B205E00398C2B22846691CCDB23A5460
:1075C0004C20005B002803DD102101980843019046
:1075D000002618E0A81C14280BD94C20005B801B47
:1075E0004200700023462433C118184603F0ECFD16
:1075F0000DE07919720023462433985A00F081F97E
:107600004019C5B2761C4C20005BB042E2DC00BFE2
:107610004C20005B801B81B24C20015301983870D4
:10762000284605B0F0BD30B595B005460C460020A3
:107630000D9000BF08A8007D01090901491C08A898
:107640000175007DF0218843103008A9087500BF3E
:10765000217B08A84175807D06218843811C08A8EC
:1076600081751C210EA803F0F5FD08A8007E1021ED
:107670008843103008A9087600200F9011901290CE
:107680000DA813900020149000BF01216846817757
:10769000A049818300BF00200690617B6846017687
:1076A000A17B4176807E06218843811C68468176D5
:1076B000807E08218843014668468176807E1021BD
:1076C0008843014668468176807E41084900491C0E
:1076D00068468176142108A803F0BCFD07A808902D
:1076E00006A8099001AA00212846FFF73FFF01469E
:1076F00068460185002141851421818501A80C90EF
:10770000E8882B46083308AA0EA9A2DF15B030BDC1
:1077100030B58FB005460C461C2108A803F09AFD31
:1077200008A9087802218843801C08A90870002055
:1077300009900B900C900D900E9000BF01216846AF
:1077400081727449491C018100BF00200190E17BD6
:1077500068460171217C4171807906218843811C32
:1077600068468171807908218843014668468171A5
:1077700080791021884301466846817180794108EB
:10778000490068468171142103A803F063FD02A833
:10779000039001A804900121684681820021C182E2
:1077A00001210183A0680790E8882B46103303AAC3
:1077B00008A9A2DF0FB030BDF8B504460E46306808
:1077C0002060307960710020C04320840021222095
:1077D00001554C20015300BF0121684681704E497C
:1077E000018000BFA21D69460120A0DF0546002DD3
:1077F00001D02846F8BD31462046FFF714FF054664
:10780000002D01D02846F5E7B068002808D03146A1
:107810002046FFF77DFF0546002D01D02846E9E709
:107820000020E7E7F0B58BB004460F46208C3B49BB
:10783000884222D006AA39462046FFF797FE064620
:1078400005960020019002900390049021896846DB
:107850008180012181710021018105A8039006A882
:107860000490208C01A9A6DF0546002D04D16846AE
:10787000808AB04200D00C2500E0082528460BB0D5
:10788000F0BD70B504460D464C20005B14280AD1AB
:107890002622A118881E03F097FC4C20005B401E96
:1078A00081B24C2001534C20015B005B401C82B232
:1078B0004C200253490020462430455270BD0146F9
:1078C0004C20405A142801D1012070470020FCE7C9
:1078D0000246108C114B984202D151710020704722
:1078E0000820FCE722221154704713B582B00446E9
:1078F00001200190208A03AB01AA0021A4DF04B07B
:1079000010BD02460A70FF200002104000124870AD
:1079100002207047372A00000D180000FFFF00000A
:10792000F7B584B004460F4606980678B01C1F28A9
:1079300003DC6078801C1F2802DD0C2007B0F0BD3E
:107940001F20801B801E85B20295B11C781802A9E9
:107950007DDF03900398002801D00398EEE720789C
:10796000022808D168460089A84204DC0920019059
:10797000684605890BE0082001906078002804D053
:107980006078A84201DC657801E068460589681CDA
:10799000C2B23046711CCEB23A543046721CD6B2D6
:1079A0000199395406980178A81C0818C1B20698A4
:1079B00001700020C2E7F8B505460C462078001D8E
:1079C0001F2801DD0C20F8BD684679DF0646002E31
:1079D00001D03046F7E703212278501C2070A954CB
:1079E00019212278501C2070A9542078411968462A
:1079F000008800F08AFA2178401820700020E2E721
:107A0000F8B505460F4616461C466868002801D1A1
:107A10000720F8BD2078801C298840181F2801DD28
:107A20000C20F6E72878401CC1B22278501C207048
:107A3000B1542178481C207077542A8823789819EB
:107A4000696803F05DFB20782978401820700020D9
:107A5000DFE730B503461078C01C1F2801DD0C207D
:107A600030BD02241578681C10704C550A24157816
:107A7000681C10704C551578681C10704B55002010
:107A8000EEE7FFB587B006461D46109C0020069025
:107A900020780590002747E0B900706841180A88EF
:107AA0006846028149884181002203A902A865DF56
:107AB00004900498002802D004980BB0F0BD6846EA
:107AC000017B099881422ED10698002801D0002020
:107AD00000E00220019020786946097B4118019856
:107AE00008181F2801DD0C20E7E70698002809D1B7
:107AF0002078401C20702278511C08982170A854CE
:107B0000012006902078421903A902A865DF04909D
:107B10000498002801D00498CFE720786946097BB3
:107B20004018207000BF7F1C3088B842B4DC069833
:107B3000002806D021780598401C081AC1B2059883
:107B400029540020B9E7FFB581B0074615460A9EC3
:107B5000009602223846049B0299FFF792FF0446E2
:107B6000002C02D0204605B0F0BD00961022294618
:107B70003846049BFFF785FF0446002C01D02046C1
:107B8000F1E70020EFE701460888062808DB0888AF
:107B90001922D201904205DD0888E04A904201D0C6
:107BA000072070474888062808DB48881922D20138
:107BB000904205DD4888D94A904201D00720F0E77D
:107BC0000888D64A904208D04888904205D0088854
:107BD0004A88904201DD0720E3E70020E1E7F8B59D
:107BE00006460D4614462078801D1F2801D90C201A
:107BF000F8BD3046FFF7C7FF0746002F01D03846D3
:107C0000F6E705212278501C2070A9541221227811
:107C1000501C2070A95422785119308800F075F951
:107C200021784018207022785119708800F06DF981
:107C30002178401820700020DAE7F8B505460E4696
:107C400014462879801CC7B22078801CC0191F28D0
:107C500001DD0C20F8BD781CC1B22278501C2070C8
:107C6000B154FF212278501C2070B1542278911910
:107C7000288800F04AF9217840182070A888002848
:107C80000EDDA868002801D10720E3E7AA88237841
:107C90009819A96803F034FA2078297940182070DF
:107CA0000020D7E7FEB507460E461446386B00287D
:107CB00001D10720FEBD0020019032E0396B0C227B
:107CC000019850430D182879801CC0B2009000988C
:107CD000401CC1B22278501C2070B1541621227869
:107CE000501C2070B15422789119288800F00DF9A9
:107CF000217840182070A88800280EDDA868002888
:107D000001D10720D6E7AA8823789819A96803F03B
:107D1000F7F920782979401820700198401CC0B2EA
:107D200001903420C15D01988142C7DC0020C1E789
:107D3000F8B504460F46164600250020307020781E
:107D4000002809D0324639462046FFF7E9FD0546AE
:107D5000002D01D02846F8BDA078002808D0314673
:107D60003846FFF728FE0546002D01D02846F2E7E9
:107D7000A08800280ADD33463A460121201DFFF77E
:107D80003FFE0546002D01D02846E4E7E0680028C4
:107D90000BD00020E168085632463946FFF759FEFD
:107DA0000546002D01D02846D5E7208A00280CDDA5
:107DB0003B4606220221204610300096FFF7C3FE04
:107DC0000546002D01D02846C5E7208B00280CDD94
:107DD0003B4607220321204618300096FFF7B3FEEA
:107DE0000546002D01D02846B5E7208C00280CDD83
:107DF0003B4615221421204620300096FFF7A3FEB3
:107E00000546002D01D02846A5E7A06A002809D024
:107E100032463946A06AFFF7E2FE0546002D01D042
:107E2000284698E7E06A002809D032463946E06AD9
:107E3000FFF703FF0546002D01D028468BE73420CD
:107E4000005D002809DD324639462046FFF72AFF4B
:107E50000546002D01D028467DE728467BE70146F0
:107E60008888002808D08868002805D088680078AD
:107E700004221040002801D1072070470020FCE7B1
:107E800001468888002801DD072070470020FCE7B4
:107E9000F3B593B00D46002112911191139800286B
:107EA00014D01398FFF7DBFF0446002C02D02046C5
:107EB00015B0F0BD12AA09A91398FFF739FF0446BF
:107EC000002C01D02046F3E709AE00E00026002D8B
:107ED00013D02846FFF7D4FF0446002C01D02046DB
:107EE000E6E711AA01A92846FFF722FF0446002C65
:107EF00001D02046DCE701AF00E0002710A803799D
:107F00003A46017A304672DFD2E702460A70FF2015
:107F1000000210400012487002207047FFFF00006E
:107F2000F8B505460E46002432782146641C6A5492
:107F300072782146641C6A5400BF022C01D10120D2
:107F400000E000200746002F05D100BF08A2202135
:107F5000FEF7D0F900BF00BF2046F8BD70B504465B
:107F60000D46284603F0AAF82080656070BD000029
:107F70002E2E5C2E2E5C2E2E5C2E2E5C2E2E5C5316
:107F80006F757263655C626C655C626C655F73657E
:107F90007276696365735C626C655F7372765F634A
:107FA0006F6D6D6F6E2E63000A7B002A04D04A68E5
:107FB00002600022027103E00A680260012202717D
:107FC00070470246107900280FD048681368C01A1D
:107FD0008B68984204D910688B68C018106013E051
:107FE00048681060002010710EE010680B68C01A1D
:107FF0008B68984204D910688B68C01A106003E03F
:1080000008681060012010711068704710B50028D2
:1080100019DAFB4A03071B0F083B9B089B00D25849
:108020008307DC0EFF23A3409A438B071B0E8407B4
:10803000E40EA3401A43F24B0407240F083CA408A3
:10804000A4001A5118E0EF4A03231B02D218830838
:108050009B00D2588307DC0EFF23A3409A438B0773
:108060001B0E8407E40EA3401A43E64B03242402AC
:108070001B198408A4001A5110BD10B50446E2482B
:10808000846003211120FFF7C1FF10BD10B501204E
:108090000004DE494860DD4940394860112000F0A5
:1080A000F5FC112000F0E4FC0120D94908602F20E4
:1080B000FEF74AF80120D749087010BD10B511200D
:1080C00001218140CF4A8032116000BF01200004AD
:1080D000CE498860CD49403988600120CC4948604C
:1080E0002F20FEF731F80120C94988600020CA49D5
:1080F00008602F20FEF728F80020C649087010BD40
:10810000F0B5024624205043C44B1B68C118C44834
:108110000068401C002802D1C148026059E0C048F4
:108120004B68006824246043BC4C246800194068F4
:10813000834217D8BA48006824235843B74B1B68BA
:10814000C01840684B68C31AB548006824246043CF
:10815000B24C246800194360B14800680862B04816
:10816000026036E04B68AE4D2C6828680DE024258F
:108170004543AA4E3668AD196D685B1B044624253D
:108180004543A64E3668AD19286A451C002D07D018
:1081900024254543A14E3668AD196D689D42E6D34E
:1081A000451C002D0CD0242545439C4E3668AD1946
:1081B0006D68EE1A24254543984F3F68ED196E60AF
:1081C0004B60086224256543944E3668AD192A62D7
:1081D00000BFF0BDF8B50646914805682C4609E099
:1081E000B44200D109E02546242060438B49096848
:1081F0004018046A601C0028F2D100BF601C0028EF
:1082000000D1F8BDA54210D185480068242148431B
:10821000824909684018006A814908600846006878
:10822000401C002801D1FFF749FF242060437B490F
:108230000968401847682420604378490968401855
:10824000016A24206843754A12688018016224205C
:108250006843724909684018046A601C00280CD001
:10826000242060436D49096840184068C1192420E2
:1082700060436A4A12688018416000BFC1E710B5C8
:10828000112000F0FCFB10BD10B5142000F0F7FB2E
:1082900010BD70B5044663480068002813D0614AD9
:1082A000E169A06912689047054600BF2E46002E7E
:1082B00007D000BF5CA2FF2164313046FEF71AF8F8
:1082C00000BF00BF02E0A169E069884770BDF8B552
:1082D00053480068401C00283AD0002700F008FCF2
:1082E00004464D480168204600F005FC06464C480F
:1082F000056811E02420684348490968441860680B
:10830000B04200D90BE06068361A6068C719256A68
:108310002046FFF7BEFF00BF681C0028EAD100BF5F
:108320004D4800784D490978884209D14B4800787A
:10833000401CC0B249490870022801D100200870D1
:1083400046480078800046490F50FFF79DFF00BF68
:10835000F8BD014640480078404A127890421DD04E
:108360003D480078401C3C4A1070104600780228B6
:1083700001D100201070384800788000384A105829
:108380000860254A086812688018234A1060104661
:1083900000680002000A1060012070470020086099
:1083A00000BFFAE7FEB51E48006801902D4800782E
:1083B000009076E00098C0002B49096844182578A1
:1083C0006BE01820684361680F18681CC5B2A0787C
:1083D000A84200D100253878022802D0032859D1BC
:1083E00044E02421786848430C4909684618307DE8
:1083F000002804D07868FFF7EDFE002030754AE0D1
:108400001CED00E000E100E00015014040130140D8
:1084100000100140AC20002098200020882000207F
:1084200094200020A82000202E2E5C2E2E5C2E2EC4
:108430005C2E2E5C2E2E5C536F757263655C6170D2
:10844000705F636F6D6D6F6E5C6170705F74696D8E
:1084500065722E6300000000A4200020A5200020EB
:108460009C2000208C200020902000200CE0F84967
:10847000096824225143F74A1268881800210175BF
:10848000F34A016A116000BFF1480068401C0028EF
:10849000EDD100E000BF00BF00BF6078A84290D1DE
:1084A00000BF0098411EC9B20091002882D1E8485F
:1084B00001680198814201D00120FEBD0020FCE747
:1084C000F0B50346002426E0E14E366824277E43BB
:1084D000E04F3F68F01946689E4203D94668F61A95
:1084E00046601DE046689B1B4668341900264660BE
:1084F0000675D74E3568D64F066A3E600669002E6F
:1085000008D00E193602360A86600669C6601668FB
:108510000662156000BFCE480068401C0028D3D119
:1085200000BFF0BDFEB50746C94800680290CA48C2
:10853000007801906BE00198C000C84909684518AF
:108540005DE0781C002807D03E4624207043C149D6
:1085500009684418276A23E02978182359436A6870
:1085600050182978491C29702978AA78914201D19C
:1085700000212970466824217143B64A12688C187C
:108580000178012902D1217D002900D037E08168DE
:10859000A160C168E160016921614169E16100BFD9
:1085A000AF49A0680968401A0002000AAD49884234
:1085B00008D2AB49A068096800F09DFAE16840184C
:1085C000606011E0A648A168006800F094FA00908D
:1085D000E1680098814204D9E1680098081A606057
:1085E00001E00020606000BF0020A060E06001208A
:1085F0002075801E20623046FFF782FD00BF781C88
:1086000000289ED12878697888429AD100BF0198C5
:10861000411EC9B2019100288DD18D480168029890
:10862000814201D00120FEBD0020FCE7FEB5884854
:108630000068401C002834D0854800682421484345
:10864000844909684018456800F052FA019084484E
:1086500004682146019800F04EFAC61C8248007852
:10866000002801D1FFF712FDAE4201D2284600E0FA
:10867000304604192402240A20467C49086000BFC1
:1086800000F036FA00900199009800F034FAC71C07
:108690002046019900F02FFA874201D9FFF7EFFD3C
:1086A00001E0FFF70BFDFEBDFEB50020C0430190C9
:1086B0006B480468664807686846FFF74AFE054647
:1086C000FFF770FE0646002D05D001AA214600984E
:1086D000FFF7F6FE01260198FFF724FF002800D0DF
:1086E0000126002E02D03846FFF7A0FFFEBD4170E4
:1086F000704770B502460B465078411C907888420E
:1087000000D100211078884201D1002070BD19608D
:1087100050781826704355682C182046F6E7FFB5A8
:1087200081B005460E461746E9004C4A1268881883
:108730006946FFF7DEFF0446002C02D1042005B095
:10874000F0BD01202070666000F0D2F9A060E76003
:10875000049820610A986061E900404A126888180C
:108760000099FFF7C4FFFFF78FFD0020E7E7F8B59A
:1087700004460E46E100394A126888186946FFF738
:10878000B8FF0546002D01D10420F8BD0220287055
:108790006E60E100314A126888180099FFF7A7FF60
:1087A000FFF772FD0020F0E738B50446E1002B4AE0
:1087B000126888186946FFF79CFF0546002D01D115
:1087C000042038BD03202870001F6860E100234AA0
:1087D000126888180099FFF78AFFFFF755FD0020FF
:1087E000EFE710B5002022490860002120484160D1
:1087F0008160C16000201E49403908604860FFF771
:1088000066FD10BD10B5FFF74FFF10BDFFB581B07D
:108810000E4617461C4620468107890F002901D1C4
:10882000012100E00021002902D1072005B0F0BDA0
:10883000002C01D10720F9E7FFF740FC0D490A9809
:1088400008600D48067003480460002523E000001E
:1088500094200020882000208C20002090200020E0
:1088600098200020FFFF7F00AC2000204015014031
:1088700040110140A8200020842000200021242055
:1088800068439F4A12681154242068439C4A126826
:10889000801801756D1CB542F0DB2420704304196B
:1088A00003209849087098480460183400250CE0AB
:1088B000E900954A1268881800210170417087709C
:1088C0004460182179430C196D1C032DF0DB002046
:1088D000C0438E49086000208D4908708D4908709A
:1088E000142000F0D3F803211420FFF78FFB14208D
:1088F00000F0BEF80198FFF7C0FB00F0F9F88649D8
:108900000860002092E770B503460C467C4800687A
:10891000002801D1082070BD002A01D10720FAE704
:10892000002B01D10720F6E700211CE0242048435A
:10893000734D2D68285C002814D10125242048435C
:108940006F4E36683554242048436D4D2D684019CC
:108950004470242048436A4D2D6840198261196093
:108960000020D8E7491C6D4800788142DEDB0420F6
:10897000D1E710B500F092F8012802D0032804D105
:1089800001E0002403E0012401E0022400BF00BF55
:10899000204610BDFEB504460D46164658480068F0
:1089A000002801D10820FEBD5C480078844201D235
:1089B000052D01D20720F6E72420604350490968BD
:1089C000085C012801D00820EDE7242060434C49D1
:1089D000096840184078012801D1284600E00020AD
:1089E0000746FFF7C6FF3B462A4621460096019000
:1089F000FFF795FED7E770B50446414800680028A8
:108A000001D1082070BD45480078844201D3072079
:108A1000F8E7242060433A490968085C012801D03E
:108A20000820EFE7FFF7A5FF05462146FFF79FFE69
:108A3000E8E710B532480068002801D1082010BDD1
:108A4000FFF797FF0446FFF7AFFEF8E710B50446BF
:108A500000F04EF82060002010BD70B505460E46AF
:108A600014463146284600F046F82060002070BDCC
:108A7000C206D20E01219140294A11607047C206F8
:108A8000D20E01219140274A11607047C206D20ED2
:108A900001219140234A80321160704710B522486D
:108AA0004068C105C90D002920D00A46103A50B2CD
:108AB00000280DDA1C4B1C330407240F083CA408C3
:108AC000A4001B598407E40EE3401B069B0F0BE038
:108AD000134B032424021B198408A4001B59840788
:108AE000E40EE3401B069B0FD8B210BD0420FCE748
:108AF0000E48406870470246501A0002000A70474C
:108B0000882000208C20002090200020942000202D
:108B1000A4200020A52000209820002084200020F0
:108B200000E100E000E200E000ED00E0001501409F
:108B300070B506460C46154629462046FDF7E8FB6B
:108B400070BDF8B55A480078002800D1F8BD5948E2
:108B50000068002801D1012000E0002005465648A9
:108B60000068002801D1012000E00020064600BF77
:108B7000002D14D1684651DF0446052C01D1012592
:108B80000CE0002C06D000BF4CA269212046FDF766
:108B9000B1FB03E0474900980968884700BF002EF1
:108BA0001AD154480088009069465348006861DF34
:108BB0000446052C01D101260DE0002C06D000BF93
:108BC0003EA280212046FDF795FB04E04A4800685C
:108BD00039490968884700BF002D02D0002E00D017
:108BE00000E0C5E700BF00BFB0E7FFB581B00C46AD
:108BF00016461F46002C02D1072005B0F0BD2046C6
:108C00008107890F002901D1012100E000210029FD
:108C100001D10720F1E7384804603648068037481C
:108C200007603749019810DF0546002D01D028461E
:108C3000E3E701201E490870162026DFDDE710B5A6
:108C400011DF0446002C01D0012000E0002018496B
:108C50000870204610BD0146002901D10E20704742
:108C6000154801600020FAE70146002901D10E20D5
:108C70007047104801600020FAE770B51F4800688F
:108C8000002811D01D4800688047044600BF2546D3
:108C9000002D07D000BF09A2FF2133312846FDF780
:108CA00029FB00BF00BF01E0FFF74BFF70BD0000D4
:108CB000BA200020C0200020BC2000202E2E5C2ED8
:108CC0002E5C2E2E5C2E2E5C2E2E5C536F757263E6
:108CD000655C73645F636F6D6D6F6E5C736F6674FC
:108CE0006465766963655F68616E646C65722E6346
:108CF00000000000B8200020B4200020B020002098
:108D0000318B010001464888B74A1288904206DB41
:108D10004888B54A5288904201DC01207047002003
:108D2000FCE738B50546B1480088B14988423BD0D8
:108D3000B0480078401CAF490870AF48007B097804
:108D400088420FDBA849A948008875DF0446002C3B
:108D500007D0A9488069002803D0A7488169204628
:108D6000884721E00020A3490870A348007C002820
:108D70000FD03B219D48008876DF0446002C07D0A9
:108D80009D488069002803D09B4881692046884718
:108D900000BF99484069002806D0002000909648FE
:108DA00041696846884700BF38BD70B505461C223A
:108DB00029469148FDF7D8F90020904908702868A5
:108DC00000280BD008228848296802F099F98648C3
:108DD0007ADF0446002C08D0204670BD82487BDF35
:108DE0000446002C01D02046F7E70020C0437F490D
:108DF000088000207F490870814A00218148FFF7E0
:108E000082FDEAE710B57F480068FFF7F4FD10BD6A
:108E100038B57D48FFF776FF002829D177480078DC
:108E200000280AD074484069002820D00020009013
:108E3000714841696846884719E06E480078002803
:108E400002D16D48456801E06B48856800222946DB
:108E50006C480068FFF79EFD0446002C07D066486A
:108E60008069002803D064488169204688470AE069
:108E700061484069002806D0012000905E484169A1
:108E80006846884700BF00205C49087038BD10B5AF
:108E90000446A08855490880082221460E315A48C8
:108EA00002F02EF90020534908705348C089002869
:108EB00001D1FFF7ADFF10BD70B505460020C043DE
:108EC0004A49088000204B4908704E480068FFF767
:108ED00092FD0446002C07D047488069002803D043
:108EE000454881692046884770BD70B50546AC1D70
:108EF00020884149C989884220D1208B02281DD170
:108F000000BF00BFA17EE27E120211430846C107E6
:108F1000C90F002902D0FFF77BFF0FE03948006836
:108F2000FFF769FD0646002E07D033488069002808
:108F300003D0314881693046884700BF70BD10B505
:108F400004460822A11D304802F0DAF8FFF760FF5E
:108F500010BD10B504462088102806D0112808D06E
:108F600012280ED0502810D107E02046FFF78FFFBF
:108F70000CE02046FFF7A0FF08E02046FFF7B5FF12
:108F800004E02046FFF7DBFF00E000BF00BF10BD9C
:108F900038B5044608222146134802F0B1F81248B9
:108FA0007ADF0546002D1CD11748FFF7ABFE0028DD
:108FB0000BD10120114908700B490C48008875DF5E
:108FC000054601200B4908700BE00B48406900285A
:108FD00006D001200090084841696846884700BFD4
:108FE0000025284638BD0000C4200020CE200020E7
:108FF000FFFF0000CC2000208C240020DC2000207B
:10900000238D0100D8200020D0200020002314212F
:109010004143FC4A53541421414389184B80012396
:109020001421414389188B6000231421414389187E
:10903000CB601421414389180B61142141438918E5
:109040008B80704710B50020EF490880EF49087009
:10905000EC49091F087048708870002403E020461E
:10906000FFF7D4FF641C0A2CF9D310BDFFB583B001
:1090700004460F4615460326E448007800280BD125
:10908000002D06D10698002803D10220DF49087080
:1090900002E00120DD490870DC480078030002F09E
:1090A000BCF907FD05314E84BAD7FD00D8484069A8
:1090B000401C002808D001221207126991B2D44A3C
:1090C000506902F0C9F802E0012000074069401E23
:1090D00001210907096989B248430290012000076C
:1090E00000690004820C01200007006980B2784307
:1090F0000146029821DF0646002E02D10220C34914
:109100000870D0E0384620DF0646002E16D1002D2C
:1091100011D1069800280AD12078042803D107200D
:10912000BA4908700AE00520B849087006E0042032
:10913000B649087002E00320B4490870B3E0B448AF
:109140004069401C002808D001221207126991B220
:10915000AF4A506902F080F802E001200007406940
:10916000401E01210907096989B248430121090705
:109170000290096989B2794308462A46029921DF9B
:109180000646002E10D1069800280AD1207804281F
:1091900003D106209D49087006E005209B49087010
:1091A00002E00420994908707DE099484069401C1C
:1091B000002808D001221207126991B2944A50691E
:1091C00002F04AF802E0012000074069401E012138
:1091D0000907096989B24843A90040186188401805
:1091E000012109070290096989B27943AA00891807
:1091F00062888818069A029921DF0646002E09D156
:109200002078042803D106208049087002E0052058
:109210007E49087047E001200007006980B278436A
:10922000AB00C0180290608882082169029821DF93
:109230000646002E0BD1002D06D10698002803D13A
:1092400007207249087002E00620704908702AE081
:109250006F484069401C002808D00122120712699B
:1092600091B26B4A506901F0F7FF02E0012000075C
:109270004069401E01210907096989B248430190EC
:1092800001200007006981B2019801F0E5FF02901A
:1092900020DF0646002E04D1072000E002E05B49F3
:1092A000087000E000BF00BF304607B0F0BDF0B569
:1092B00085B00F275348001F0078142148435149B7
:1092C0004418E5682078022804D0042823D0052813
:1092D0006FD16FE0206903904B4800888602608858
:1092E000801B0490039880190390A0888019451969
:1092F000012189020498884206D2049882082846EF
:10930000039921DF074605E0FF2201322846039931
:1093100021DF074681E0A06800013E49401800892E
:109320000490A0680001401840890390A0680001E3
:109330004018406802900298A84205D10399049809
:1093400048436188884202D0A06802280DD10120DC
:109350000007006981B2284601F07EFF2A4909888A
:109360004618304620DF074622E00120000700694A
:1093700081B2284601F070FF06460120000700690F
:1093800080B27043281A800801900120000700690C
:1093900080B2711C484361884919401A80080090C6
:1093A00031462046009B019AFFF760FE074600BF4A
:1093B00033E031E001200007006981B2284601F066
:1093C0004BFF0646A088411901200007006980B2C2
:1093D0007043081A80080490A088401961884218D8
:1093E00001200007006980B2711C4843801A800880
:1093F000039031462046039B049AFFF737FE074649
:109400000BE00000AC240020E8200020EB2000202E
:10941000001000107425002000BF00BF002F02D1F3
:109420000120FE498870384605B0F0BDFFB581B017
:10943000064617460024F94840780A2837D0F748EE
:109440000078F64949784018C4B20A2C02DB20465D
:109450000A38C4B214206043F049091D0E54142088
:10946000604340180761142060434118029805C802
:10947000CA60886014206043E84A121D801804996D
:1094800041801420604380180A9981800025101FB4
:109490008078002805D1FFF70AFF0546112D00D17D
:1094A0000025DE484078401CDC49487000E0042577
:1094B000284605B0F0BDF8B50446D8480078142118
:1094C0004843D649091D0E5C081F00781421484303
:1094D000D249091D401880680001D1490D58CF4874
:1094E000007814214843CD49091D40184088091FC0
:1094F0000090097814225143C84A121D89180B693B
:10950000111F097814225143C44A121D89180846B4
:10951000083022463146A847F8BD10B50024BF48A0
:109520004078002809DDFFF7C2FE0446002C04D075
:10953000112C02D02046FFF7BEFF204610BDFEB51D
:1095400005460026B548807801287DD10020B34922
:109550008870B4480078082811D1022D03D100206A
:10956000B049087002E00020AF490870FFF7D5FF4E
:109570000646002E02D03046FFF79DFFFEBD022DAD
:1095800002D0032D79D174E0A44800781421484317
:10959000A249091D4418A5480088401CA349088019
:1095A0002078022807D10846008880026188884216
:1095B00001DB012000E0002007462078052805D1C6
:1095C00098480078072801D1012000E0002002908F
:1095D0002078042805D193480078072801D101207C
:1095E00000E000200190207804280BD18F480088EB
:1095F00080026188884205DB8A480078002801D112
:10960000012000E0002000900298002807D1019876
:10961000002804D10098002801D1002F1FD000207D
:10962000804908703046FFF746FF7C490878FFF70D
:10963000EDFC00207D49088078484078401E77493D
:1096400048700846007800E01AE0401C08700846A0
:1096500000780A2803DB084600780A380870FFF70C
:109660005CFF0646002E02D03046FFF724FF05E0DF
:1096700003E00D20FFF71FFF00E000BF00BF00BFA9
:1096800000BF7BE770B5FFF7DDFC0020684908806C
:1096900068484069401C002808D00122120712695E
:1096A00091B2644A506901F0D7FD02E00120000741
:1096B0004069801E01210907096989B248435E4952
:1096C000086000205949088000BF0DE00021020118
:1096D000534B99500201D21811810201D218918185
:1096E0000201D2185181401C0028EFD008204D49BA
:1096F000087050484069401C002808D00122120719
:10970000126991B24B4A506901F0A6FD02E00120B6
:1097100000074069401E01210907096989B24843D1
:10972000064601200007006981B2304601F094FD31
:10973000054620DF0446002C04D1012037498870FB
:1097400039490870204670BDF8B504460D4600BF83
:1097500035480078002801D10820F8BD00BF002C52
:1097600001D10E20F9E7002D01D10E20F5E7206888
:10977000002801D10E20F0E7A0880121090709691E
:1097800089B2884202DCA088102801DA0720E4E7C9
:10979000E08800281ED027484069401C002808D0D7
:1097A00001221207126991B2224A506901F054FD58
:1097B00002E0012000074069401E012109070969F4
:1097C00089B24843E188A28851431B4A126889182C
:1097D000884201D20720C0E720798007800F002847
:1097E00001D00720B9E712480088012801D10420E0
:1097F000B3E70F48008828600F48006868600C498C
:1098000009880901064A8918686848600849098872
:10981000090120685050A08805490FE0A8240020C5
:1098200074250020EB200020EA200020E820002002
:10983000E020002000100010E42000200988090129
:1098400089180881E088FE4909880901891848813A
:109850000027A688E1884E4300BF781C87B201200C
:109860000007006980B2B04205D2012000070069FC
:1098700080B2361A00E0002601200007006980B29D
:10988000F04909684018EF490860012000070069A5
:1098900080B2B042E1D9EA4800880001EA494018A4
:1098A0008781E7480088401CE5490880002054E78C
:1098B0003CB5034600BFE5480078002801D10820E8
:1098C0003CBD00BF002B01D10E20F9E7002A01D1D9
:1098D0000E20F5E71868002805D118680001DA4C59
:1098E0002058002801D10720EAE75C681868019435
:1098F0000090019C18680001D34D4019008948432D
:1099000020180190009800012C4600194089009C05
:109910002401641924896043009C2401641964684B
:109920000019019CA04201D80720C9E7019C0098BA
:10993000546010600020C3E7F8B504460E46154693
:109940001F4600BFC1480078002801D10820F8BD9B
:1099500000BF002E01D10E20F9E7002C01D10E200E
:10996000F5E72068002805D120680001B6490858AD
:10997000002801D10720EAE720680001B249401819
:10998000408921680901B04A89180989484321683A
:1099900009018918496840186168884201D8072080
:1099A000D5E7002D06D020680001A749401800899E
:1099B000A84201DA0720CAE7E81921680901A24A8A
:1099C00089180989884201DD0720C0E7304600F088
:1099D0005CF9002804D0384600F057F9002801D17E
:1099E0001020B4E7606800F050F9002801D1102081
:1099F000ADE72B463246214602200097FFF716FDC1
:109A0000A5E7F8B504460E4615461F4600BF8F4829
:109A10000078002801D10820F8BD00BF002E01D138
:109A20000E20F9E7002C01D10E20F5E72068002870
:109A300005D12068000184490858002801D1072079
:109A4000EAE720680001804940184089216809013F
:109A50007D4A89180989484321680901891849689C
:109A600040186168884201D80720D5E7002D06D04C
:109A700020680001744940180089A84201DA0720D3
:109A8000CAE7E819216809016F4A891809898842DB
:109A900001DD0720C0E7304600F0F7F8002804D0C9
:109AA000384600F0F2F8002801D11020B4E76068D1
:109AB00000F0EBF8002801D11020ADE72B4632462C
:109AC000214605200097FFF7B1FCA5E7FFB581B05F
:109AD0000C4615461E4600BF5C480078002802D19F
:109AE000082005B0F0BD00BF002C01D10E20F8E722
:109AF0000198002801D10E20F3E72068002805D145
:109B00002068000150490858002801D10720E8E7E3
:109B1000206800014C4940184089216809014A4ADF
:109B2000891809894843216809018918496840183A
:109B30006168884201D80720D3E7002D06D020684D
:109B40000001414940180089A84201DA0720C8E70E
:109B5000A819216809013C4A89180989884201DD50
:109B60000720BEE7019800F090F8002804D03046A6
:109B700000F08BF8002801D11020B2E7606800F0F7
:109B800084F8002801D11020ABE7606881192A46CB
:109B9000019801F0B5FA0095206800012A490F5894
:109BA000002203212046019BB847002099E7F8B521
:109BB00004460D4600BF25480078002801D1082042
:109BC000F8BD00BF002C01D10E20F9E72068002865
:109BD00005D1206800011C490858002801D1072040
:109BE000EEE7206800011849401840892168090102
:109BF000154A891809894843216809018918496863
:109C000040186168884201D80720D9E7606800F0F1
:109C10003CF8002801D11020D2E723681B010A4F2D
:109C2000DB1962685B68D01A226812013B46D218C1
:109C3000118901F011FB00290AD00720C0E70000BC
:109C4000E0200020E420002074250020EA200020ED
:109C500000202B460246214600900420FFF7E6FB39
:109C600006463046ACE7014600BF0C4800780028A5
:109C700001D10820704700BF002901D10E20F9E76B
:109C80000748407808600020F4E701468807800F05
:109C9000002801D1012070470020FCE7EA200020C5
:109CA000A824002070B503460C460820002115E0CA
:109CB0000C254D43FE4EAD19AD7A2540002D0CD03C
:109CC000FC4DAB4205D00C254D43AD192D899D426D
:109CD00002D11160002003E00520491C0029E7D0D3
:109CE00000BF70BD10B5044618216143F24A8918BF
:109CF00008461130062101F0ABFA18206043EE4906
:109D000040180021016041608160C160FF2118207E
:109D10006043E94A80180174182060438018C175B7
:109D2000204601F00EF910BD7CB50546A9B26A4681
:109D3000E248FFF7BDFD0446002C09D14C216846DE
:109D4000FFF735FF0446002C02D12846FFF7CAFF73
:109D500020467CBDF8B505460E46052700240FE0D9
:109D600018216143D44A8918084610300722294631
:109D700001F076F9002802D13460002702E0641C6B
:109D8000072CEDD300BF3846F8BD10B504460121BD
:109D90000C206043C64A80188172891E0C206043E3
:109DA00080180181FF210C2060438018C1720C21B2
:109DB00061438818072101F04BFA10BD10B5044625
:109DC000002010BDF0B587B007460C461420019066
:109DD00061780C225143B64A8918088901AA02A960
:109DE000AADF0646002E46D1617818225143B44AB4
:109DF0008918081D69468A8802A901F031F90028EE
:109E000012D160780C214843A9494018807A022178
:109E1000084002282FD0617818225143A84A881898
:109E2000182101F017FA26E0607818214843A44968
:109E30000858002801D0A34D00E0A34D6946898849
:109E40006078182250439E4A11506178182251437D
:109E50009B4A8918081D69468A8802A9FCF784F97B
:109E6000607818225043964A8118302318223846C9
:109E7000A847064600BF002007B0F0BD02460020FC
:109E8000704770B505460C466178182251438C4ADC
:109E90008818302318222946FFF718FE0646002EA0
:109EA0000DD160781821484385490858401C002886
:109EB00005D10021607818225043814A1150304664
:109EC00070BD024600207047F8B504460026002702
:109ED0006078182148437A49085800281FD06078D4
:109EE0000C21484372494018807A4021084040289C
:109EF00015D160780C2148436D494018807A2021A3
:109F0000084020280BD06078182148436C4940183D
:109F1000061D6078182148436949085A87B261785C
:109F20000C225143624A891808893A463146A9DF12
:109F30000546002D00D0654D2846F8BD014600209D
:109F400070470146002902D1604833387047FF202E
:109F5000087048708870C8700020F7E7FFB58BB0B4
:109F60000F461D4600BF5A480068002801D10FB0B7
:109F7000F0BD00BF14984C2800D9F8E701200290EA
:109F800007A8FFF7DEFF064600BF0196019E002EE0
:109F900006D000BF4F4A50490198FCF7ABF900BF0B
:109FA00000BF00216846017708A801700695149843
:109FB00005900020019017E0019881B203AA3F4864
:109FC000FFF776FC0646002E0BD1082203A90B985A
:109FD00001F046F8002804D10198C1B268468177A3
:109FE00005E00198401C019001980728E4D300BFC8
:109FF0006846807FFF2875D0042F0AD114984C281A
:10A0000003D1202008A9087082E0402008A9087028
:10A010007EE02949681A182101F01EF90446072C30
:10A020001DD205A809900D98002810D16946887F97
:10A0300001218140294A12681140002901D00121E3
:10A0400000E00021002902D10020029060E0694672
:10A05000887F00F076FF202008A9087058E020498A
:10A06000681A182101F0F8F80446002C0DD105A853
:10A070000990202108A8017068464477807F182144
:10A0800048430D494018069042E00D49681A1821CE
:10A0900001F0E2F80446002C35D1302108A8017007
:10A0A000684644770121C1770C20604300491AE0DB
:10A0B0005C260020FFFF000084250020EC2000200B
:10A0C00044260020039A01003999010041800000D4
:10A0D0006826002078B40100BC040000F4200020B1
:10A0E0002C26002036E04018807A02210840022801
:10A0F0000ED06946497F18225143FB4A881818211F
:10A1000001F0A8F804E000200290402008A908709F
:10A11000029801281ED1042F06D108A9087803212E
:10A12000084308A908700EE0032F06D108A9087893
:10A130000121084308A9087005E008A90878022150
:10A14000084308A9087005A8099008A907A80D9A4E
:10A1500000F03AFF00BF0AE77FB50646002E02D1A5
:10A16000E24804B070BD00240BE000BF00210C20C9
:10A170006043DF4A11500C2060438018817200BF99
:10A18000641C002CF1D0002403E02046FFF7FDFD05
:10A19000641C002CF9D01821D34801F05BF800248E
:10A1A00006E02046FFF79EFDFF20D2490855641CBB
:10A1B000072CF6D34C21684681810721C181CE4806
:10A1C0000290CE4902A8FFF7BFFA0546002D30D114
:10A1D0000120CB4908703078002821D100241CE0F0
:10A1E000A1B26A46C548FFF763FB0546002D0FD1B3
:10A1F00018216143C34A8818002318226946FFF7D3
:10A2000065FC0546002D07D00020BD49087006E01A
:10A210000020BB49087002E0641C072CE0D308E072
:10A220006A469089D289504381B2B448FFF7BFFC97
:10A230000546284695E770B505460C4600BFB04870
:10A240000078002802D1A948801F70BD00BF002DF2
:10A2500001D1A648F9E7002C01D1A448F5E7206810
:10A26000002801D1A148F0E7A148006800280FD1DB
:10A270009F49206808600622A11D9D48001D00F02E
:10A280003FFF20799A49887200202870002601E05B
:10A29000964E0A3E3046D8E770B5044600BF98484F
:10A2A0000078002802D19148801F70BD00BF002CAB
:10A2B00001D18E48F9E700BF2078012806DA20781E
:10A2C0000C2148438A490858002802D18748801F3A
:10A2D000EBE700BF00BF6078012807DA60780C2147
:10A2E000484389494018807A012802D17F48801C60
:10A2F000DBE700BF7D4DAD1F60780C2148438249EC
:10A300004018807A02210840022809D161780C2285
:10A3100051437D4A891808897549091D7EDF054624
:10A320002846C2E7024600BF75480078002802D1DF
:10A330006E48801F704700BF002A01D16B48F9E7C3
:10A34000002901D16948F5E700BF1078012806DA35
:10A3500010780C235843664B1858002802D16348E4
:10A36000801FE7E700BF00BF5078012807DA507868
:10A370000C235843644BC018807A012802D15B48F3
:10A38000801CD7E700BF50780C2358435E4BC018A1
:10A39000807A04231840002802D0012008700EE0C3
:10A3A00050780C235843584BC018807A40231840EB
:10A3B000002802D00220087001E000200870002070
:10A3C000B8E7F0B5044600BF4D480078002802D138
:10A3D0004648801FF0BD00BF002C01D14348F9E77B
:10A3E000002901D14148F5E70868002801D13F481C
:10A3F000F0E78868002801D13C48EBE700BF2078EF
:10A40000012806DA20780C256843394D28580028A1
:10A4100002D13648801FDDE700BF00230022002064
:10A4200024E018254543374EAD19ED7DED07ED0FBE
:10A43000002D08D118254543AD1997008E68F551B8
:10A440002C4EB054521C182545432E4EAD19ED7DAF
:10A4500002263540002D08D118254543294EAD1957
:10A4600010359F000E68F5515B1C401C072805D273
:10A470000D799D4202D90D7B9542D2D80B710A739A
:10A480000020A7E7024619488230704770B504469D
:10A4900000BF1B480078002802D11448801F70BDFF
:10A4A00000BF002C01D11148F9E700BF2078012836
:10A4B00006DA20780C2148430D490858002802D1BB
:10A4C0000A48801FEBE700BF00BFA078072807DA23
:10A4D000A078182148430B494018C07DFF2815D1AA
:10A4E0000248801CDBE70000442600200E800000AC
:10A4F00068260020F92000205D9F0100EC2000204C
:10A50000F8200020842500205C26002000BFA078D1
:10A51000FFF70AFC05462846C1E770B5044600BFB0
:10A52000FE480078002801D1FD4870BD00BF002C16
:10A5300002D1FB48801DF8E700BF2078012806DA29
:10A5400020780C214843F7490858002801D1F448E5
:10A55000EBE700BF002600250BE018206843F24916
:10A560004018C07DFF2803D02846FFF7DDFB0646D4
:10A570006D1C072DF1D33046D7E7FEB504460D46D6
:10A5800000BFE6480078002801D1E548FEBD00BFC5
:10A59000002C02D1E248801DF8E7002D02D1E048EE
:10A5A000801DF3E700BF2078012806DA20780C210F
:10A5B0004843DC490858002801D1D948E6E700BFE4
:10A5C00000BF6078012807DA60780C214843D7493A
:10A5D0004018807A012802D1D1480830D6E700BF60
:10A5E00000BFA078072807DAA07818214843CE4991
:10A5F0004018C07DFF2802D1C9480830C6E700BF17
:10A60000A868002812D0686800280FD0686814284D
:10A610000CD22878012809D1637818277B43C44FCE
:10A62000DB19181D6A68A96800F06AFDA1786A46FE
:10A63000C048FFF73DF9064628788000BE490A5811
:10A64000214668469047064630469FE77CB504465B
:10A650000D4600BFB1480078002801D1B0487CBD4C
:10A6600000BF002C02D1AE48801DF8E7002D02D1BA
:10A67000AB48801DF3E700BF2078012806DA207878
:10A680000C214843A7490858002801D1A448E6E70F
:10A6900000BF00BFA078072807DAA0781821484338
:10A6A000A1494018C07DFF2802D19D480830D6E757
:10A6B00000BF60780C2148439C494018807A0221F1
:10A6C0000840022802D096488930C8E7A8680028C8
:10A6D00012D1686814280FD2287801280CD160782C
:10A6E0001821484392494018001DA860607818213D
:10A6F00048438F4908586860A1786A468D48FFF73B
:10A70000D7F80646287880008C490A5821466846C2
:10A71000904706463046A2E7014600BF7F480078D2
:10A72000002801D17E48704700BF002902D17C4833
:10A73000801DF8E700BF0878012806DA08780C22A7
:10A740005043784A1058002801D17548EBE700BF04
:10A7500000BF8878072807DA887818225043724AA1
:10A760008018C07DFF2802D16D480830DBE700BFAC
:10A770006B488830D7E702466948893070470246FF
:10A7800067488930704701466548893070470246FE
:10A7900000BF62480078002801D16148704700BFBF
:10A7A000002902D15E48801DF8E7002A02D15C48EA
:10A7B000801DF3E700BF1078012806DA10780C231B
:10A7C0005843584B1858002801D15548E6E700BFB8
:10A7D000107808700020E1E7FEB504460E46A17827
:10A7E0006A465448FFF764F80546002D49D1607861
:10A7F0000C2148434D494018807A202108402028E8
:10A8000001D0022E01D14E4F04E0012E01D14D4F57
:10A8100000E04D4FA07818225043434A811800238E
:10A8200018226846B8470546002D1AD1022E18D0C6
:10A8300060780C2148433D494018807A20218843A4
:10A8400061780C225143394A89188872607818223D
:10A8500050433E4A811818231A466846B8470546B1
:10A8600000BF022E0DD020780C2148432D494018FE
:10A87000807A800030490A5821466846904705464C
:10A8800000BFFEBD70B504460D4600BF23480078EA
:10A89000002801D1224870BD00BF002C02D1204801
:10A8A000801DF8E7002D02D11D48801DF3E700BF91
:10A8B0002078012806DA20780C21484319490858E5
:10A8C000002801D11648E6E700BF00BFA07807289E
:10A8D00007DAA0781821484313494018C07DFF28A3
:10A8E00002D10F480830D6E700BF6078FF2839D181
:10A8F0002878022836D0A178182251430A4A8918AC
:10A90000084610300722294600F0FAFBA078012102
:10A9100081400F4A126811430D4A1BE0F8200020C5
:10A920000880000068260020842500205C26002086
:10A9300044260020EC20002044B4010054B401005F
:10A94000039A010039990100BD9D01002C260020C9
:10A95000F4200020116000BF02212046FFF73CFFD9
:10A96000002600E0FE4E304695E770B504460E46E0
:10A9700000BFFC480078002802D1F948401C70BD97
:10A9800000BF002C02D1F648C01DF8E7002E02D10E
:10A99000F348C01DF3E700BF2078012806DA2078CD
:10A9A0000C214843F0490858002802D1EC48401CCB
:10A9B000E5E700BFEA4DAD1EA078FF2817D160780B
:10A9C000FF282AD060780C214843E8494018807A53
:10A9D00002210840022820D160780C225043E34A2B
:10A9E00081180722304600F08BFB002515E0A07887
:10A9F00018214843DE494018C07D02210840002844
:10AA00000BD1A07818225043D94A80180146103142
:10AA10000722304600F074FB00252846AFE7F0B56A
:10AA20008BB004460026FF20049000BFCD4800787C
:10AA3000002801D10BB0F0BD00BF00BFCA480068BC
:10AA4000002800D1F6E700BF08A8FFF77AFA05460C
:10AA500000BF2F46002F06D000BFC64AC649384661
:10AA6000FBF748FC00BF00BF0020039009900025C1
:10AA7000201D0690342168468183FF2108A881703B
:10AA80000021017000200A902088102813D0A0888F
:10AA90000AAA0221FFF706F90546002D0BD10C2169
:10AAA0000A984843B1494018C17A08A881700A98A9
:10AAB000C1B208A84170208814287DD006DC102877
:10AAC0000BD0112879D0132878D1DAE0172876D066
:10AAD000182875D05228F7D10DE20AAF3A46012165
:10AAE000A648FFF7DFF802900298002807D102215C
:10AAF0000C22386850439D4A8018817201E004207E
:10AB0000029002980546002D71D101261121684658
:10AB100001750A98C1B208A84170A1880C220A9850
:10AB20005043924A8018018102210C220A98504316
:10AB30008E4A801881720C220A9951438B4A8818D8
:10AB40000722A11D00F0DCFA607B304000280AD00B
:10AB5000607B40088A49085CFF2809D0607B400878
:10AB6000085C049004E004A9A01DFFF7F3F8054673
:10AB7000002D3CD10498C1B20C220A9850437B4A64
:10AB80008018C1720C210A98484311464018807AF7
:10AB9000082108430C220A995143744A8918887283
:10ABA00008A904988870049881B201AA7548FEF734
:10ABB0007FFE0546002D04E04EE019E0A4E1A1E08F
:10ABC00078E113D118220A9951436F4A8818182343
:10ABD0001A4601A9FEF77AFF6348807A80006B4924
:10ABE0000A5808A901A89047054600BF00BF8CE19C
:10ABF0000C210A9848435D494018807A0221884315
:10AC00000C220A995143594A891888720C210A98D2
:10AC1000484311464018807A08210840082804D18A
:10AC2000002108A8FFF7D8FD0AE008A88078FF28CF
:10AC300006D008A98878FFF755F8FF2008A9887082
:10AC400010210C220A985043484A8018817201262C
:10AC500012206946087558E10C210A984843434977
:10AC60004018C07AFF2806D018210A984843464960
:10AC70004018001D0390A0880022039981DF05463B
:10AC800043E1132069460875A088374A121D002148
:10AC90007FDF0546002D02D00995002631E00C210A
:10ACA0000A98484331494018807A042108430C220D
:10ACB0000A9951432D4A8918887201260C210A9855
:10ACC000484311464018C07AFF281AD000BF16200A
:10ACD0006946087518220A9951432D4A8918081D9A
:10ACE000142100F0B7FA0C210A9848431F49401874
:10ACF000807A202108430C220A9951431B4A891863
:10AD0000887202E10C210A98484318494018807A59
:10AD1000042188430C220A995143144A89188872E5
:10AD20001420694608750126A079002802D0A07970
:10AD30000990BEE018210A98484313494118E07A67
:10AD4000887018210A9848430F494118A07A487022
:10AD500018220A9951430C4A8918081D142219E037
:10AD600007800000F8200020682600205C260020D4
:10AD70008425002078B40100F3080000FFFF0000E4
:10AD8000F9200020EC2000202C26002054B40100E3
:10AD90004426002021460C3100F0B2F90C210A981B
:10ADA0004843A9494018807A4021084040286BD187
:10ADB0000C210A984843A4494018807A0821084386
:10ADC0000C220A995143A04A891888720C210A98CA
:10ADD000484311464018C07AFF2858D10C220A98DF
:10ADE00050430A46811804A800F0B3F80546002D28
:10ADF0004BD108A9049888700498C1B20C220A9813
:10AE00005043914A8018C172E07A4007C00F002871
:10AE100017D018220A9951438C4A881810222146CB
:10AE2000203100F06DF918210A98484387494018ED
:10AE3000C07D4108490018220A985043834A80186F
:10AE4000C175E07A0007C00F002819D018220A99AE
:10AE500051437E4A89180846103007222146303176
:10AE600000F04EF918210A98484378494018C07DEF
:10AE70000221884318220A995143744A8918C875D7
:10AE8000012108A8FFF7A8FC13E0099511E00C21A7
:10AE90000A9848436C494018807A202108430C22C4
:10AEA0000A995143684A89188872002108A8FFF757
:10AEB00093FC2AE00C210A98484363494018807AA1
:10AEC000402108430C220A9951435F4A891888722D
:10AED0001520694608750020099001265C48807A93
:10AEE00080005C4A115808A888470546002D01D00B
:10AEF0005948099009E05648807A8000554A11580F
:10AF000008A88847099000E000BF00BF002E16D0B7
:10AF100005A908A8099A00F057F86846007D12288C
:10AF20000DD100BF0C210A98484347494018807A48
:10AF3000012802D00A98FEF728FF00BF00BF00BF1B
:10AF400078E501218140454A12688A4343490A60F5
:10AF50007047F8B505460E463F4FBF1C00242EE053
:10AF60001820604339494018C07DFF2826D1307829
:10AF7000022814D0182060434018C07D0221884365
:10AF800018216143314A8918C8751821614389180D
:10AF9000084610300722314600F0B2F80BE01820C6
:10AFA00060432A494018C07D410849001820604389
:10AFB000264A8018C1752C70002702E0641C072CFB
:10AFC000CED300BF3846F8BDF8B504460D46164648
:10AFD0001F480768324629462046B847F8BD024652
:10AFE0000020704770B505460E4631462846FEF7EC
:10AFF000E9FE0446002C02D100BF00BF04462046F3
:10B0000070BD02460020704770B505460E463146B9
:10B010002846FEF736FF0446002C02D100BF00BFD1
:10B020000446204670BD01460020704770B50546B5
:10B030002846FEF749FF0446002C02D100BF00BF9E
:10B040000446204670BD00005C26002084250020B8
:10B050006826002064B4010041800000F420002034
:10B06000034610B50B439B070FD1042A0DD308C824
:10B0700010C9121FA342F8D018BA21BA884201D9C8
:10B08000012010BD0020C04310BD002A03D0D3070B
:10B0900003D0521C07E0002010BD03780C78401C40
:10B0A000491C1B1B07D103780C78401C491C1B1B37
:10B0B00001D1921EF1D1184610BD000030B5441CDC
:10B0C00003E00178401C00290DD08107F9D10B4B1A
:10B0D000DD0104C8D11A91432940FAD0001B0A06A9
:10B0E00003D0C01E30BD001B30BD0A0401D0801E3D
:10B0F00030BD0902FCD0401E30BD0000010101013D
:10B10000F8B5042A2CD3830712D00B78491C03709E
:10B11000401C521E83070BD00B78491C0370401C47
:10B12000521E830704D00B78491C0370401C521E2A
:10B130008B079B0F05D0C91ADF002023DE1B08C92F
:10B140000AE0FBF711F8F8BD1D4608C9FD401C4692
:10B15000B4402C4310C0121F042AF5D2F308C91AB8
:10B16000521EF0D40B78491C0370401C521EEAD4C6
:10B170000B78491C0370401C012AE4D40978017043
:10B18000F8BD431A70B593421BD28918801804E0A9
:10B19000491E401E0B78521E03709307F8D106E03B
:10B1A0001039103878C9103978C01038103A102A80
:10B1B000F6D203E0091F001F0B680360121FF9D5C8
:10B1C00070BDFAF7D1FF70BDF8B5064614460843C6
:10B1D000800707D0751AA54219D20819102D13D26D
:10B1E000311907E03046FFF7CCFFF8BD401E491E7D
:10B1F00002780A70641EF9D2F8BD471B2A46394608
:10B20000FFF77EFF641B3846A542F6D3011B22469A
:10B210003046FFF775FFF8BD01E004C0091F04299F
:10B22000FBD28B0701D50280801CC90700D00270B9
:10B23000704700290BD0C30702D00270401C491E82
:10B24000022904D3830702D50280801C891EE3E70C
:10B250000022EEE70022DFE7002203098B422CD315
:10B26000030A8B4211D300239C464EE003460B4356
:10B270003CD4002243088B4231D303098B421CD3B8
:10B28000030A8B4201D394463FE0C3098B4201D3AA
:10B29000CB01C01A524183098B4201D38B01C01AE2
:10B2A000524143098B4201D34B01C01A5241030959
:10B2B0008B4201D30B01C01A5241C3088B4201D308
:10B2C000CB00C01A524183088B4201D38B00C01AB5
:10B2D000524143088B4201D34B00C01A5241411ADC
:10B2E00000D201465241104670475DE0CA0F00D0BF
:10B2F0004942031000D34042534000229C460309B8
:10B300008B422DD3030A8B4212D3FC22890112BA3D
:10B31000030A8B420CD3890192118B4208D3890115
:10B3200092118B4204D389013AD0921100E089092D
:10B33000C3098B4201D3CB01C01A524183098B420E
:10B3400001D38B01C01A524143098B4201D34B01F7
:10B35000C01A524103098B4201D30B01C01A52415A
:10B36000C3088B4201D3CB00C01A524183088B42E1
:10B3700001D38B00C01A5241D9D243088B4201D36A
:10B380004B00C01A5241411A00D201466346524155
:10B390005B10104601D34042002B00D54942704754
:10B3A00063465B1000D3404201B50020C046C04652
:10B3B00002BD704770477047754600F023F8AE46EF
:10B3C000050069465346C008C000854618B020B540
:10B3D000FAF7FAFE60BC00274908B6460026C0C549
:10B3E000C0C5C0C5C0C5C0C5C0C5C0C5C0C5403D3D
:10B3F00049008D4670470446C046C0462046FAF7CD
:10B400009DFE000000487047742600200149182066
:10B41000ABBEFEE726000200704730B47446641EDF
:10B420002578641CAB4204D3635D5B00E31830BC39
:10B4300018471D46F8E700000D1801000F1801001D
:10B440000A180100DFAF0100C59D01007D9E0100CB
:10B45000E5AF010003B00100839E0100C39E01001F
:10B4600009B0010027B00100C99E01003D9F010005
:10B470002DB00100FFFFFFFF2E2E5C2E2E5C2E2E26
:10B480005C2E2E5C2E2E5C536F757263655C626C55
:10B49000655C6465766963655F6D616E6167657241
:10B4A0005C6465766963655F6D616E616765725F37
:10B4B0007065726970686572616C2E6300000000CF
:10B4C000D0B4010000200020000100000461010050
:10B4D0000024F400FFFF0100000000000000000055
:10B4E000000000000000000000000000000000005C
:10B4F000000000000000000000000000000000004C
:10B50000000000000000000000000000000000003B
:10B51000000000000000000000000000000000002B
:10B52000000000000000000000000000000000001B
:10B53000000000000000000000000000000000000B
:10B5400000000000000000000000000000000000FB
:10B5500000000000000000000000000000000000EB
:10B5600000000000000000000000000000000000DB
:10B5700000000000000000000000000000000000CB
:10B5800000000000000000000000000000000000BB
:10B5900000000000000000000000000000000000AB
:10B5A000000000000000000000000000000000009B
:10B5B000000000000000000000000000000000008B
:10B5C000000000000000000000000000000000007B
:04000005000160C1D5
:00000001FF
