:020000040001F9
:10400000A03A0020C1410100D3410100D541010087
:1040100000000000000000000000000000000000A0
:10402000000000000000000000000000D741010077
:104030000000000000000000D9410100DB41010048
:10404000DD410100DD410100DD410100DD410100F4
:10405000DD41010000000000DD410100DD41010003
:10406000DD410100DD410100DD410100DD410100D4
:10407000DD410100DD410100DD410100DD410100C4
:10408000DD41010011660100DD410100DD4101005B
:1040900033660100DD410100996A0100DD41010044
:1040A000DD410100DD4101000000000000000000D2
:1040B0000000000000000000000000000000000000
:1040C00000F002F800F040F80CA030C808382418BE
:1040D0002D18A246671EAB4654465D46AC4201D140
:1040E00000F032F87E460F3E0FCCB6460126334232
:1040F00000D0FB1AA246AB4633431847884800005D
:10410000A8480000103A02D378C878C1FAD85207FC
:1041100001D330C830C101D504680C60704700007D
:104120000023002400250026103A01D378C1FBD8D3
:10413000520700D330C100D50B6070471FB5C04691
:10414000C0461FBD10B510BD04F0E5FB1146FFF7DA
:10415000F5FF00F074FD04F0FDFB03B4FFF7F2FF80
:1041600003BC04F001FC0000401E00BF00BF00BF04
:1041700000BF00BF00BF00BF00BF00BF00BF00BF47
:1041800000BFF1D17047000070B505460C461646D9
:1041900002E00FCC0FC5103E102EFAD2082E02D32B
:1041A00003CC03C5083E042E07D301CC01C5361F3E
:1041B00003E021782970641C6D1C761EF9D270BD55
:1041C0000A4802680F210A430260094880470948EB
:1041D0000047FEE7FEE7FEE7FEE7FEE7FEE700003A
:1041E00005480649064A074B704700002405004071
:1041F0009F420100C1400100A02A0020A03A0020F7
:10420000A0320020A03200202E482F4908607047BD
:104210002E48008CC0B2012810D12C48808C000799
:10422000000F0BD12948806AF0210840402805D1B1
:104230002648C06A084201D1012070470020FCE7EF
:104240002248008CC0B2012827D12048808C00076A
:10425000000F22D11D48806AF021084205D11B4879
:10426000C06A084201D1012070471848806AF021D5
:104270000840102805D11548C06A084201D1012024
:10428000F2E71248806AF0210840302805D10F4833
:10429000C06A084201D10120E6E70020E4E710B53A
:1042A000FFF7CEFF002805D009480A494860C81327
:1042B00009498861FFF7ACFF002802D001200749B7
:1042C000886010BD0024F40000200020C00F00F022
:1042D000DFFF07C000050040006C00400006004002
:1042E00030B513048C0023430524240707252D0231
:1042F00064198500635130BD0F2000F0C7FC00BF7A
:10430000BFF34F8FFB48FC49C860BFF34F8F00BF1E
:1043100000BFFEE704460D462A462146F748FFF750
:10432000EBFF70B5F649F74801F085FDC5B22946A7
:10433000F54801F018F80446002C0DD0082C0BD0DD
:10434000F248844208D0F248844205D000BFF1A26E
:10435000BD212046FFF7D0FF70BD10B50446FFF722
:10436000E0FF10BD10B504460120207000206070F1
:10437000A070EB49EB4801F05EFDA080EA49EB48F4
:1043800001F059FDA071EA49EA4801F054FD20818D
:10439000A08803210902884201D90120A07010BD24
:1043A0007FB505466846FFF7DDFF6946E24801F044
:1043B000B2F90446002C0ED0082C0CD0D34884420D
:1043C00009D0D348844206D000BFD2A2FF210531D4
:1043D0002046FFF791FF7FBD10B5082000F04DFC8F
:1043E000092000F04AFC0F2000F047FC10BDF8B592
:1043F00000BF0020D14B05220321009002F01DF9DF
:10440000054600BF2E46002E06D000BFC1A2FF21E8
:104410001F313046FFF770FF00BF00BFC84A0121BF
:10442000C84802F089F9044600BF2546002D06D091
:1044300000BFB8A2FF2125312846FFF75DFF00BF6E
:10444000C14A0121C14802F077F9044600BF254660
:10445000002D06D000BFAFA2FF212B312846FFF769
:104460004BFF00BFF8BD3EB500BF684600780109AC
:104470000901491C009168460078F02188431030FA
:10448000009000BF0A22B2A168467CDF044600BF4C
:104490002546002D06D000BF9EA2FF213D312846B3
:1044A000FFF72AFF00BF1120800178DF044600BF1C
:1044B0002546002D06D000BF96A2FF214031284698
:1044C000FFF71AFF00BF002001900290FF219131F9
:1044D000684681804900C18000210181FF2191311E
:1044E000418101A87ADF044600BF2546002D06D091
:1044F00000BF88A2FF214A312846FFF7FDFE00BF1A
:104500003EBD30B593B006210391944A07CA6B466D
:1045100007C33C2104A804F04CF9022004900121B7
:1045200068464175018303A9079103218185694686
:104530000C91002104A801F0E5FB044600BF2546CC
:10454000002D06D000BF73A2FF216B312846FFF774
:10455000D3FE00BF1421824804F02BF900208049CB
:1045600008704860087228200882B420488213B07E
:1045700030BD30B599B00020169017901890169065
:10458000052010A9488400BF10A8007F0109090177
:10459000491C10A80177007FF0218843103010A932
:1045A000087700BF00BF16A840790009000116A9CE
:1045B000487116A84079F021884316A9487100BFB8
:1045C00000BF16A8807900090001887116A88079BB
:1045D000F021884316A9887100BF00BF10A8C07FD2
:1045E00001090901491C10A8C177C07FF021884347
:1045F000103010A9C87700BF00BF16A8007A0009C4
:10460000000116A9087216A8007AF021884316A99D
:10461000087200BF484801F050F8044600BF254624
:10462000002D06D000BF3BA2FF2194312846FFF7A2
:1046300063FE00BF142111A804F0BBF800BF10A84E
:10464000407C01090901491C10A84174407CF021FB
:104650008843103010A9487400BF00BF11A8807BA8
:1046600000090001401C11A9887311A8807BF0216A
:104670008843103011A9887300BF00BF11A8C07B08
:1046800000090001C87311A8C07BF021884311A95B
:10469000C87300BF00BF10A8007D01090901491CB3
:1046A00010A80175007DF0218843103010A908750D
:1046B00000BF00201190012110A80172002013906A
:1046C000642110A8017411A90F4800F02BFE0446C4
:1046D00000BF2546002D06D000BF0EA2FF21A63147
:1046E0002846FFF709FE00BF402101A804F061F849
:1046F00038E000000400FA0500ED00E0EFBEADDE9A
:10470000E02300200C200020AC2300200330000018
:10471000013400002E2E5C6D61696E2E6300000076
:10472000F023002014200020002400201C20002062
:104730001024002024200020C42300200821002071
:104740005B4301002C200020A14301003020002009
:104750004E6F726469635F525343000078890100B1
:1047600098230020F9A101A801F032FB00BF10A896
:10477000007801090901491C10A801700078F02196
:104780008843103010A9087000BF00BF10A84078FF
:1047900000090001487010A84078F021884310A952
:1047A000487000BF01A800F095FB044600BF2546F5
:1047B000002D06D000BFEA4AFF21B1312846FFF79D
:1047C0009BFD00BF19B030BD10B55120E549086010
:1047D00064204860012088600873E34801F01EFBF4
:1047E0008020E24908600D20C0014860FF20813030
:1047F000886000200873DE4801F010FB2820DD49A6
:104800000860A02048601420886000200873DA48FF
:1048100001F004FB1420D94908607D204860052080
:10482000886000200873D64801F0F8FA10BD1E20F9
:10483000D44908800846807840084000401C8870B1
:104840000846807802218843CE49887008468078DF
:104850001C2188430C30CB49887008468078202181
:104860008843C84988700720C870102008717047B5
:1048700070B5002201210904C348006801F0A3FFBC
:10488000044600BF2646002E06D000BFB44AFF21D2
:10489000EF313046FFF730FD00BF0125ED03002268
:1048A0002946BA48006801F08EFF044600BF26463C
:1048B000002E06D000BFAA4AFF21F4313046FFF790
:1048C0001BFD00BF70BD70B5B14873DF044600BF6B
:1048D0002546002D06D000BFA14AFF21FF31284602
:1048E000FFF70AFD00BF082000F0D0F970BD70B5D9
:1048F0000546286800280FD13B21A648008876DFAE
:10490000044600BF2646002E05D000BF944AA249A7
:104910003046FFF7F1FC00BF70BD044600BF904A6F
:10492000112149012046FFF7E7FC30B587B01C2173
:10493000684603F03EFF002000900520C003019070
:104940000290032168460173944841896846C181F9
:10495000002101749248059092480690684602F042
:1049600032F9044600BF2546002D06D000BF7C4A20
:10497000894922312846FFF7BFFC00BF07B030BD90
:1049800070B505462888102806D011280ED01328A7
:1049900025D019284BD135E0092000F077F90820FF
:1049A00000F079F9A8887B49088041E0092000F0EF
:1049B00072F90020C0437749088002F0BBFF04462B
:1049C00000BF2646002E06D000BF654A72493C3122
:1049D0003046FFF791FC00BFFFF775FF28E0694AFA
:1049E00000216C4800887FDF044600BF2646002E69
:1049F00006D000BF5A4A684945313046FFF77CFC73
:104A000000BF15E0A879002810D1082000F043F974
:104A100031DF044600BF2646002E06D000BF504AB4
:104A2000992189003046FFF767FC00BF00E000BF16
:104A300000BF70BD10B50446204602F03EFF21467F
:104A4000564800F006FD2146574800F06EFB204610
:104A500002F08DF92046FFF793FF10BD10B5044614
:104A6000204603F074FB10BD70B500BF0023502238
:104A70004E49082001F0C9FF054600BF2E46002E12
:104A800006D000BF364A444981313046FFF734FC36
:104A900000BF00BF464801F0EDFF044600BF2546B9
:104AA000002D06D000BF2E4A3B4985312846FFF72E
:104AB00023FC00BF3F4801F0E6FF044600BF254647
:104AC000002D06D000BF264A334989312846FFF71A
:104AD00013FC00BF70BD10B5032200210846FFF78C
:104AE000FFFB032200210120FFF7FAFB10BD044663
:104AF00000BF1B4A5721C9002046FFF7FDFBFEB54A
:104B000003F058FB044600BF2546002D06D000BF29
:104B1000134A2149B1312846FFF7EEFB00BF0120BF
:104B200025490969C1400140002900D100E0002069
:104B3000064622484069401C42D0012212071269F1
:104B400091B21E4A506903F036FE3CE04E6F72642B
:104B5000696353656D69636F6E647563746F72002A
:104B600014470100E02300200C200020F023002047
:104B700014200020002400201C20002010240020ED
:104B800024200020062000202C200020302000209F
:104B9000982300200420002015020000C4230020D8
:104BA000EF4801001B490100AC23002048230020EE
:104BB000354A01005D4A0100000500500010001058
:104BC000012000074069401E69460870344840696A
:104BD000401C08D001221207126991B2304A506974
:104BE00003F0E9FD02E0012000074069C01EC1B2E8
:104BF00068464170002001902A48029068468670FD
:104C000002F0D6FF044600BF2546002D05D000BFA8
:104C1000254A26492846FFF76FFB00BFFEBD70B549
:104C20003DDF044600BF2546002D06D000BF1E4ACA
:104C3000B72189002846FFF75FFB00BF70BDFFF773
:104C4000CBFBFFF748FFFFF70FFFFFF758FFFFF71A
:104C5000CEFBFFF708FCFFF754FCFFF78AFCFFF7D9
:104C6000B3FDFFF762FEFFF7E2FDFFF701FEFFF77E
:104C70002AFE00BFFFF7D3FFFCE701210522120740
:104C800007231B02D2188300D150704701218140B5
:104C9000074A9160704701218140054AD160704701
:104CA00000100010EF4A010014470100D302000079
:104CB0000005005070B504460D4600BF002D01D020
:104CC000012000E000200646002E05D100BFE6A22C
:104CD0003321FFF711FB00BF00BF00BF002C01D044
:104CE000012000E000200646002E05D100BFDEA214
:104CF0003421FFF701FB00BF00BF2878207029880E
:104D00002879FF231B02194000200206080A1043DD
:104D1000607028791B022968194000200204080CE1
:104D20001043A07029791B0228681840002109024D
:104D3000000E0843E07028792071287A6071190C00
:104D4000A8680840000AA0710902A8680840000C81
:104D5000E07170BDF8B505460E46002400BF002E78
:104D600001D0012000E000200746002F05D100BF40
:104D7000BDA24B21FFF7C0FA00BF00BF00BF002D4E
:104D800001D0012000E000200746002F05D100BF20
:104D9000B5A24C21FFF7B0FA00BF00BF3278204621
:104DA000611CCCB22A542919708800F054F90019FA
:104DB000C4B22919B08800F04EF90019C4B22919FB
:104DC000F08800F048F90019C4B200BF072C01D1E7
:104DD000012000E000200746002F05D100BFA2A25D
:104DE0005421FFF789FA00BF00BFF8BDF0B58FB0BE
:104DF00007460D4614461E4600BF002D01D0012077
:104E000000E0002000900098002805D100BF96A285
:104E10006D21FFF771FA00BF00BF00BF002C01DD5C
:104E2000012000E0002000900098002805D100BF7C
:104E30008DA26E21FFF760FA00BF00BF1C2107A8FA
:104E400003F0B7FC6946087F02218843801C69464D
:104E50000877002008900A900B900C900D9000BFEE
:104E6000012108A881766846078700BF00200190CD
:104E700031786846017171784171807906218843E3
:104E8000811C684681718079082188430146684603
:104E9000817180791021884301466846817180794B
:104EA0004108490068468171142102A803F081FC81
:104EB0000EA8029001A80390684604820021418256
:104EC0008482069502AA07A974480088149BA2DF71
:104ED0000FB0F0BD7FB5044600BF01216846817365
:104EE0006F49818100BF6D4A03A90120A0DF0546FB
:104EF000002D02D0284604B070BD208800280DDDAA
:104F000068480090228823463C3367486168FFF771
:104F10006DFF0546002D01D02846ECE720890028CA
:104F20000EDD62480090228923463C335E48401FD4
:104F3000E168FFF75BFF0546002D01D02846DAE760
:104F4000208A00280EDD5A480090228A23463C33EE
:104F50005548001F6169FFF749FF0546002D01D044
:104F60002846C8E7208B00280EDD52480090228B8F
:104F700023463C334C48801EE169FFF737FF054666
:104F8000002D01D02846B6E7208C00280EDD4A48C7
:104F90000090228C23463C334348C01E616AFFF7D1
:104FA00025FF0546002D01D02846A4E7208D0028C6
:104FB0000EDD42480090228D23463C333A48401E85
:104FC000E16AFFF713FF0546002D01D0284692E75E
:104FD000206B002813D001A8216BFFF76BFE384827
:104FE00023463C33082201A900902F48801FFFF779
:104FF000FDFE0546002D01D028467CE700BF606B12
:1050000000280FD02F480090606B027923463C3374
:1050100001682548401CFFF7E9FE0546002D01D038
:10502000284668E7A06B002813D001A8A16BFFF702
:1050300091FE254823463C33072201A900901A48D7
:105040002730FFF7D3FE0546002D01D0284652E752
:1050500000BF00204FE702460A70FF200002104008
:1050600000124870022070472E2E5C2E2E5C2E2ED1
:105070005C2E2E5C2E2E5C536F757263655C626CC9
:10508000655C626C655F73657276696365735C62AB
:105090006C655F6469732E6300000000342000209B
:1050A0000A18000036200020292A00003E20002097
:1050B000462000204E200020562000205E200020A8
:1050C000662000206E200020762000208A88428200
:1050D00070470022D24342827047F8B504460E461C
:1050E000207D002820D0B51D2988608981421AD1F1
:1050F000288B022817D12068002814D000BF00BFD9
:10510000A97EEA7E120211430846C107C90F002991
:1051100002D00020009001E0012000906946204666
:105120002268904700BF00BFF8BD70B505460C4629
:105130002088102804D0112807D050280FD109E06A
:1051400021462846FFF7C2FF0AE021462846FFF71E
:10515000C0FF05E021462846FFF7BFFF00E000BF83
:1051600000BF70BDF0B591B004460D46207D00280B
:1051700019D00020099000BF08A800790109090191
:10518000491C08A801710079F0218843103008A952
:10519000087100BF697B08A84171807906218843A6
:1051A000801C08A988711C210AA803F002FB08A82A
:1051B000007A02218843811C08A80172007A10211C
:1051C0008843217D002901D0012100E0002109014F
:1051D00010221140084308A9087200200B900D907E
:1051E0000E90207D002801D009A800E000200F903B
:1051F0000020109000BF01216846817377498181AA
:1052000000BF00200290A97B68460172E97B4172D1
:10521000807A06218843811C68468172807A082141
:105220008843014668468172807A1021884301468E
:1052300068468172807A4108490068468172297BFC
:105240000191142104A803F0B4FA03A8049002A861
:10525000059001216846018300214183012181835A
:1052600001A80890A088A31D04AA0AA9A2DF0646E7
:10527000002E02D0304611B0F0BDA86800284DD0F5
:1052800000BF0121684681735549818100BF00201C
:105290000290287C6946087200BF6846407A01097E
:1052A000090168464172407AF02188436946487294
:1052B00000BF6846807A06218843811C6846817257
:1052C000807A08218843014668468172807A1021DD
:1052D0008843014668468172807A410849006846E1
:1052E0008172A96800F056FD0746142104A803F056
:1052F00060FA03A8049002A805906846078300217D
:105300004183018B81830890E08822460E3204A9F4
:10531000A3DF0646002E03D03046ACE70020E08134
:105320000020A8E7F8B504460D4628682060002054
:10533000C043608228792075FF20207400BF0121BE
:10534000684681702749018000BF221D69460120FF
:10535000A0DF0646002E01D03046F8BD2946204683
:10536000FFF700FFF9E733B585B004460025207C40
:105370006946097E88422FD0012104916846007E4B
:105380002074E08806AB04AA0021A4DF0546002DA6
:1053900002D0284607B030BD608A1349884219D030
:1053A000207D002816D000200090019002900390EC
:1053B00001210491E188684601800121817000216A
:1053C000818004A8029006A80390608A6946A6DF3F
:1053D000054600E0082500BF2846DBE7192A000043
:1053E000082900000F180000FFFF00008A88C28211
:1053F00070470022D243C282704738B505460C463A
:10540000208B022817D12868002814D000BF00BFC5
:10541000A17EE27E120211430846C107C90F00298E
:1054200002D00020009001E001200090694628464B
:105430002A68904700BF38BD70B504460D46AE1DC2
:1054400031886089814203D131462046FFF7D5FF7C
:1054500070BD70B505460C462088102804D0112870
:1054600007D050280FD109E021462846FFF7BEFF9C
:105470000AE021462846FFF7BCFF05E02146284602
:10548000FFF7DAFF00E000BF00BF70BDF7B50C46C4
:105490001646002701257119A08800F06BF9401904
:1054A000C5B2A2792846691CCDB232540098007E5C
:1054B000C007C00F0AD02078002807D0012007437A
:1054C0007119208900F056F94019C5B20098008B77
:1054D0000221084216D06078002813D0022007432A
:1054E0007119E0680870FF2212020240120A4A7025
:1054F000FF2212040240120C8A70020ECA700422AB
:105500005019C5B20098008B0421084204D0A0783D
:10551000002801D00420074337702846FEBD30B56F
:1055200099B005460C460020119000BF10A80079E4
:1055300001090901491C10A801710079F021884373
:10554000103010A9087100BF217910A8417180792D
:1055500006218843811C10A881711C2112A803F028
:1055600028F910A8007A10218843103010A9087279
:10557000002013901590169011A8179000201890F5
:1055800000BF012108A881737F496846818500BF5B
:1055900000200A90617908A80172A1794172807A8D
:1055A00006218843811C08A88172807A08218843DB
:1055B000014608A88172807A10218843014608A814
:1055C0008172807A41084900491C08A8817214211F
:1055D0000CA803F0EEF80BA80C900AA80D9001AAF5
:1055E00006A92846FFF752FF0146684601870021B9
:1055F00041871421818701A81090A888AB1D0CAAAF
:1056000012A9A2DF19B030BD70B590B005460C46A6
:105610001C2109A803F0CDF808A9087902218843C4
:10562000801C08A9087100200A900C900D900E9023
:105630000F9000BF0121684681735349491C818145
:1056400000BF00200290E17968460172217A417220
:10565000807A06218843811C68468172807A0821FD
:105660008843014668468172807A1021884301464A
:1056700068468172807A4108490068468172142127
:1056800004A803F096F866896846067131124171E4
:1056900003A8049002A80590022168460183002116
:1056A00041830221818301A80890A8882B460E33EC
:1056B00004AA09A9A2DF10B070BDF8B504460E46D1
:1056C000306820600020C043E0827089208300BFE2
:1056D0000121684681702D49018000BF221D694665
:1056E0000120A0DF0546002D01D02846F8BD314637
:1056F0002046FFF714FF0546002D01D02846F5E7A8
:1057000031462046FFF780FF0546002D01D0284690
:10571000ECE70020EAE7F0B58BB004460F46E08ADC
:105720001B49884222D006AA39462046FFF7AEFE22
:105730000646059600200190029003900490E188AF
:1057400068468180012181710021018105A80390B3
:1057500006A80490E08A01A9A6DF0546002D04D121
:105760006846808AB04200D00C2500E00825284613
:105770000BB0F0BD02460A70FF200002104000127C
:105780004870022070470000532A000014180000DF
:10579000FFFF0000F7B584B004460F460698067870
:1057A000B01C1F2803DC2079801C1F2802DD0C2080
:1057B00007B0F0BD1F20801B801E85B20295B11C72
:1057C000781802A97DDF03900398002801D0039880
:1057D000EEE72068022808D168460089A84204DC68
:1057E00009200190684605890BE008200190207986
:1057F000002804D02079A84201DC257901E0684620
:105800000589681CC2B23046711CCEB23A5430468B
:10581000721CD6B20199395406980178A81C081850
:10582000C1B2069801700020C2E7F8B505460C46E3
:105830002078001D1F2801DD0C20F8BD684679DFA7
:105840000646002E01D03046F7E703212278501C8F
:105850002070A95419212278501C2070A954207856
:1058600041196846008800F08AFA217840182070B3
:105870000020E2E7F8B505460F4616461C46686864
:10588000002801D10720F8BD2078801C2988401805
:105890001F2801DD0C20F6E72878401CC1B22278D1
:1058A000501C2070B1542178481C207077542A88ED
:1058B00023789819696802F01DFF2078297840182C
:1058C00020700020DFE730B503461078C01C1F2889
:1058D00001DD0C2030BD02241578681C10704C5579
:1058E0000A241578681C10704C551578681C1070C7
:1058F0004B550020EEE7FFB587B006461D46109CCD
:105900000020069020780590002747E0B9007068D5
:1059100041180A886846028149884181002203A90A
:1059200002A864DF04900498002802D004980BB009
:10593000F0BD6846017B099881422ED10698002867
:1059400001D0002000E00220019020786946097B08
:105950004118019808181F2801DD0C20E7E7069878
:10596000002809D12078401C20702278511C08980A
:105970002170A854012006902078421903A902A89A
:1059800064DF04900498002801D00498CFE72078C1
:105990006946097B4018207000BF7F1C3088B842E0
:1059A000B4DC0698002806D021780598401C081A17
:1059B000C1B2059829540020B9E7FFB581B0074668
:1059C00015460A9E009602223846049B0299FFF76C
:1059D00092FF0446002C02D0204605B0F0BD009690
:1059E000102229463846049BFFF785FF0446002C09
:1059F00001D02046F1E70020EFE70146088806289D
:105A000008DB08881922D201904205DD0888E04AA7
:105A1000904201D0072070474888062808DB488854
:105A20001922D201904205DD4888D94A904201D01E
:105A30000720F0E70888D64A904208D0488890426C
:105A400005D008884A88904201DD0720E3E700205E
:105A5000E1E7F8B506460D4614462078801D1F285C
:105A600001D90C20F8BD3046FFF7C7FF0746002FCD
:105A700001D03846F6E705212278501C2070A95441
:105A800012212278501C2070A95422785119308894
:105A900000F075F92178401820702278511970882B
:105AA00000F06DF92178401820700020DAE7F8B591
:105AB00005460E4614462879801CC7B22078801C03
:105AC000C0191F2801DD0C20F8BD781CC1B2227856
:105AD000501C2070B154FF212278501C2070B1540A
:105AE00022789119288800F04AF92178401820700E
:105AF000A88800280EDDA868002801D10720E3E768
:105B0000AA8823789819A96802F0F4FD20782979E9
:105B1000401820700020D7E7FEB507460E46144611
:105B2000786B002801D10720FEBD0020019032E0F3
:105B3000796B0C22019850430D182879801CC0B253
:105B400000900098401CC1B22278501C2070B154C3
:105B500016212278501C2070B1542278911928887F
:105B600000F00DF9217840182070A88800280EDD7B
:105B7000A868002801D10720D6E7AA8823789819B9
:105B8000A96802F0B7FD20782979401820700198A3
:105B9000401CC0B201903820C15D01988142C7DC31
:105BA0000020C1E7F8B504460F4616460025002040
:105BB00030702068002809D0324639462046FFF769
:105BC000E9FD0546002D01D02846F8BD6079002882
:105BD00008D031463846FFF728FE0546002D01D093
:105BE0002846F2E7208900280BDD33463A4601219A
:105BF00020460830FFF73EFE0546002D01D028461E
:105C0000E3E7206900280BD00020216908563246BE
:105C10003946FFF758FE0546002D01D02846D4E747
:105C2000A08A00280CDD3B460622022120461430C3
:105C30000096FFF7C2FE0546002D01D02846C4E7B6
:105C4000A08B00280CDD3B460722032120461C3098
:105C50000096FFF7B2FE0546002D01D02846B4E7B6
:105C6000A08C00280CDD3B46152214212046243050
:105C70000096FFF7A2FE0546002D01D02846A4E7B6
:105C8000E06A002809D032463946E06AFFF7E1FEB3
:105C90000546002D01D0284697E7206B002809D043
:105CA00032463946206BFFF702FF0546002D01D032
:105CB00028468AE73820005D002809DD324639464B
:105CC0002046FFF729FF0546002D01D028467CE736
:105CD00028467AE701460889002807D0C8680028C6
:105CE00004D0C86800780422104201D10720704710
:105CF0000020FCE701460889002801DD07207047E5
:105D00000020FCE7F3B593B00D46002112911191EC
:105D10001398002814D01398FFF7DCFF0446002CDA
:105D200002D0204615B0F0BD12AA09A91398FFF7BA
:105D300039FF0446002C01D02046F3E709AE00E00D
:105D40000026002D13D02846FFF7D4FF0446002C70
:105D500001D02046E6E711AA01A92846FFF722FF55
:105D60000446002C01D02046DCE701AF00E000270C
:105D700010A803793A46017A304672DFD2E702462C
:105D80000A70FF2000021040001248700220704785
:105D9000FFFF0000F8B505460E4600243278214684
:105DA000641C6A5472782146641C6A5400BF022C39
:105DB00001D1012000E000200746002F05D100BFDF
:105DC00008A22021FEF798FA00BF00BF2046F8BDC8
:105DD00070B504460D46284602F06AFC20806560D6
:105DE00070BD00002E2E5C2E2E5C2E2E5C2E2E5CA6
:105DF0002E2E5C536F757263655C626C655C626CC1
:105E0000655F73657276696365735C626C655F7309
:105E100072765F636F6D6D6F6E2E63000A7B002A72
:105E200004D04A6802600022027103E00A6802603E
:105E30000122027170470246107900280FD048688D
:105E40001368C01A8B68984204D910688B68C01810
:105E5000106013E048681060002010710EE01068B8
:105E60000B68C01A8B68984204D910688B68C01AF6
:105E7000106003E00868106001201071106870471E
:105E800010B5002819DAFE4A03071B0F083B9B08D0
:105E90009B00D2588307DC0EFF23A3409A438B0755
:105EA0001B0E8407E40EA3401A43F54B0407240F8E
:105EB000083CA408A4001A5118E0F24A03231B026C
:105EC000D21883089B00D2588307DC0EFF23A3401F
:105ED0009A438B071B0E8407E40EA3401A43E94B39
:105EE000032424021B198408A4001A5110BD10B504
:105EF0000446E548846003211120FFF7C1FF10BD6F
:105F000010B501200004E1494860E049403948608B
:105F1000112000F0D4FC112000F0C3FC0120DC496A
:105F200008602F20FEF720F910BD10B511200121C7
:105F30008140D44A8032116000BF01200004D3495F
:105F40008860D249403988600120D14948602F20BB
:105F5000FEF70AF910BDF0B5024628205043CD4B9C
:105F60001B68C118CC480068401C02D1CA480260B6
:105F700057E0C9488B68006828246043C54C2468F2
:105F800000198068834217D8C34800682823584303
:105F9000C04B1B68C01880688B68C31ABE48006875
:105FA00028246043BB4C246800198360BA48006809
:105FB0004862B948026034E08B68B74D2C682868A5
:105FC0000DE028254543B34E3668AD19AD685B1B1F
:105FD000044628254543AF4E3668AD19686A451C0E
:105FE00007D028254543AB4E3668AD19AD689D42B4
:105FF000E7D3451C0CD028254543A64E3668AD197D
:10600000AD68EE1A28254543A24F3F68ED19AE60F2
:106010008B604862282565439E4E3668AD196A62DA
:1060200000BFF0BD70B502469B4C2168084609E0F0
:10603000904200D108E0014628244443954D2D6844
:106040006419606A441CF3D100BF441C00D170BDC8
:10605000814209D1904C246828256C438D4D2D68D0
:106060006419646A8C4D2C6028244443894D2D6842
:106070006419A36828244443864D2D686419656A11
:1060800028244C43834E3668A419656228244C4367
:10609000804D2D686419606A441C0CD02824444348
:1060A0007C4D2D686419A468E51828244443794E72
:1060B0003668A419A56000BFC9E710B5112000F02B
:1060C000F7FB10BD10B5142000F0F2FB10BD70B549
:1060D000044672480068002813D0704A216AE069BB
:1060E00012689047054600BF2E46002E07D000BF1D
:1060F0006BA2FF2155313046FEF7FEF800BF00BF0E
:1061000002E0E169206A884770BDF8B5624800681E
:10611000401C39D0002700F004FC04466C4801689C
:10612000204600F001FC06465B48056811E0282087
:106130006843584909684418A068B04200D90AE089
:10614000A068361AA068C719656A2046FFF7BFFF26
:1061500000BF681CEBD100BF5E4800785E4909783B
:10616000884209D15C480078401CC0B25A49087086
:10617000022801D100200870574800788000574954
:106180000F50FFF79FFF00BFF8BD01465148007850
:10619000514A127890421DD04E480078401C4D4A1A
:1061A000107010460078022801D100201070494874
:1061B00000788000494A10580860454A086812680B
:1061C0008018434A1060104600680002000A106000
:1061D000012070470020086000BFFAE7FEB52E4896
:1061E000006801903E48007800903FE00098C000B1
:1061F0003C4909684418257834E0182068436168F0
:106200000F18681CC5B2A078A84200D100253868D4
:10621000022802D0032822D10EE0282178684843C2
:106220001C4909684618307E002804D07868FFF7BA
:10623000F9FE0020307613E00CE0174909682822A7
:106240005143144A1268881800210176124A416AA3
:10625000116000BF10480068401CEED100E000BF94
:1062600000BF00BF6078A842C7D100BF0098411EA0
:10627000C9B200910028B9D107480168019833E0FC
:106280001CED00E000E100E000150140401301407A
:1062900000100140802000208C200020A020002041
:1062A0002E2E5C2E2E5C2E2E5C2E2E5C2E2E5C5303
:1062B0006F757263655C6170705F636F6D6D6F6E3B
:1062C0005C6170705F74696D65722E630000000020
:1062D000902000209C2000209D2000209420002061
:1062E0008520002088200020814201D00120FEBDB1
:1062F0000020FCE7F0B50346002426E0FE4E366899
:1063000028277E43FD4F3F68F01986689E4203D9D7
:106310008668F61A86601CE086689B1B86683419BE
:10632000002686600676F44E3568F34F466A3E6076
:106330004669002E08D00E193602360AC660466934
:10634000066116684662156000BFEB480068401C95
:10635000D4D100BFF0BDFEB50746E7480068029003
:10636000E7480078019069E00198C000E5490968B4
:1063700045185CE0781C07D03E4628207043DF4972
:1063800009684418676A23E02978182359436A6822
:1063900050182978491C29702978AA78914201D18E
:1063A00000212970466828217143D44A12688C184C
:1063B0000168012902D1217E002900D037E08168DF
:1063C000E160C1682161016961614169216200BFC9
:1063D000CD49E0680968401A0002000ACB498842AA
:1063E00008D2C949E068096800F09EFA216940189E
:1063F000A06011E0C448E168006800F095FA0090E0
:1064000021690098814204D921690098081AA06086
:1064100001E00020A06000BF0020E06020610120BA
:106420002076801E60623046FFF795FD00BF781C25
:10643000A0D12878697888429CD100BF0198411E7C
:10644000C9B2019100288FD1AB48016802988142FE
:1064500001D00120FEBD0020FCE7FEB50546A648A0
:106460000068401C34D0A448006828214843A34950
:1064700009684018866800F054FA0290A24804683F
:106480002146029800F050FAC01C0190681C01D10E
:10649000FFF736FD0198B04201D2304600E0019886
:1064A00004192402240A20469949086000BF00F01C
:1064B00038FA00900299009800F036FAC71C20467E
:1064C000029900F031FA874201D9FFF7F6FD01E0A9
:1064D000FFF72BFDFEBDFEB50020C04301908A48AA
:1064E0000468854807686846FFF74FFE0546FFF7D2
:1064F00075FE0646002D05D001AA21460098FFF73B
:10650000F9FE01260198FFF726FF002800D001269A
:10651000002E02D03846FFF7A0FFFEBD4170704745
:1065200070B502460B465078411C9078884200D1E5
:1065300000211078884201D1002070BD1960507888
:106540001826704355682C182046F6E7FFB581B031
:1065500005460E461746E9006A4A126888186946D9
:10656000FFF7DEFF0446002C02D1042005B0F0BD89
:1065700001202060666000F0D4F9A060E760049814
:1065800020610A986061E9005E4A126888180099E3
:10659000FFF7C4FFFFF796FD0020E7E7F8B50446D4
:1065A0000E46E100574A126888186946FFF7B8FF9F
:1065B0000546002D01D10420F8BD022028606E6040
:1065C000E100504A126888180099FFF7A7FFFFF70B
:1065D00079FD0020F0E738B50446E100494A126829
:1065E00088186946FFF79CFF0546002D01D104205D
:1065F00038BD03202860001F6860E100414A12682E
:1066000088180099FFF78AFFFFF75CFD0020EFE78D
:1066100010B500203F49086000213E48416081607C
:10662000C16000203B49403908604860FFF76DFDBC
:1066300010BD10B5FFF74FFF10BDFFB581B00E467E
:1066400017461C4620468107890F01D1012100E031
:106650000021002902D1072005B0F0BD002C01D196
:106660000720F9E7FFF761FC2B490A9808602B48DF
:1066700006702248046000250CE0002128206843B1
:106680001E4A12681150282068431C4A126880185C
:1066900001766D1CB542F0DB2820704304190320FD
:1066A0001749087017480460183400250CE0E90009
:1066B000144A126888180021017041708770446084
:1066C000182179430C196D1C032DF0DB0020C04309
:1066D0000949086000201249087012490870142006
:1066E00000F0EDF803211420FFF7CAFB142000F09E
:1066F000D8F8019818E000008C20002080200020AD
:10670000852000208820002090200020FFFF7F00AF
:106710004015014040110140A020002084200020AD
:106720009C2000209D200020FFF7E1FB00F0F9F8FD
:106730008049086000208FE770B503460C467E480C
:106740000068002801D1082070BD002A01D107206F
:10675000FAE7002B01D10720F6E700211CE02820F2
:106760004843754D2D682858002814D1012528204C
:106770004843714E36683550282048436E4D2D6889
:1067800040194460282048436B4D2D684019C26170
:1067900019600020D8E7491C684800788142DEDB98
:1067A0000420D1E710B500F092F8012802D00328A8
:1067B00004D101E0002403E0012401E0022400BF31
:1067C00000BF204610BDFEB504460D4616465A4889
:1067D0000068002801D10820FEBD58480078844296
:1067E00001D2052D01D20720F6E728206043524947
:1067F00009680858012801D00820EDE728206043E7
:106800004D49096840184068012801D1284600E038
:1068100000200746FFF7C6FF3B462A462146009662
:106820000190FFF793FED7E770B504464248006831
:10683000002801D1082070BD40480078844201D36F
:106840000720F8E7282060433B49096808580128D9
:1068500001D00820EFE7FFF7A5FF05462146FFF727
:106860009DFEE8E710B534480068002801D10820F3
:1068700010BDFFF797FF0446FFF7ADFEF8E710B530
:10688000044600F04EF82060002010BD70B50546AB
:106890000E4614463146284600F046F82060002097
:1068A00070BDC206D20E01219140254A1160704789
:1068B000C206D20E01219140224A11607047C206E1
:1068C000D20E012191401F4A80321160704710B5ED
:1068D0001D484068C105C90D002920D00A46103A5C
:1068E000104600280DDA184B1C330407240F083C0F
:1068F000A408A4001B598407E40EE3401B069B0F69
:106900000BE00F4B032424021B198408A4001B591D
:106910008407E40EE3401B069B0FD8B210BD042091
:10692000FCE70A48406870470246501A0002000A15
:10693000704700009020002080200020842000204C
:1069400000E100E000E200E000ED00E000150140A1
:1069500070B506460C46154629462046FDF7DAFC7A
:1069600070BDF8B559480078002800D1F8BD5848E6
:106970000068002801D1012000E0002005465548AC
:106980000068002801D1012000E00020064600BF79
:10699000002D14D168464EDF0446052C01D1012597
:1069A0000CE0002C06D000BF4BA26F212046FDF763
:1069B000A3FC03E0464900980968884700BF002E01
:1069C0001AD153480088009069465248006860DF39
:1069D0000446052C01D101260DE0002C06D000BF95
:1069E0003DA286212046FDF787FC04E04948006867
:1069F00038490968884700BF002D02D0002E00D01A
:106A000000E0C5E700BF00BFB0E7FFB581B00C46AE
:106A100016461F46002C02D1072005B0F0BD2046C7
:106A20008107890F01D1012100E00021002901D156
:106A30000720F2E73748046035480680364807608B
:106A40003649019810DF0546002D01D02846E4E7BD
:106A500001201E490870162023DFDEE710B511DF84
:106A60000446002C01D0012000E0002017490870E6
:106A7000204610BD0146002901D10E20704715485F
:106A800001600020FAE70146002901D10E2070477D
:106A90000F4801600020FAE770B51F480068002821
:106AA00011D01D4800688047044600BF2546002DD0
:106AB00007D000BF08A2FF2139312846FDF71CFC92
:106AC00000BF00BF01E0FFF74CFF70BDA420002015
:106AD000B8200020B42000202E2E5C2E2E5C2E2EFE
:106AE0005C2E2E5C2E2E5C536F757263655C736436
:106AF0005F636F6D6D6F6E5C736F667464657669EE
:106B000063655F68616E646C65722E6300000000EF
:106B1000B0200020AC200020A820002051690100F6
:106B200001464888B74A1288904206DB4888B54A31
:106B30005288904201DC012070470020FCE738B504
:106B40000546B1480088B14988423BD0B04800783A
:106B5000401CAF490870AF48007B097888420FDBC2
:106B6000A849A948008875DF0446002C07D0A94829
:106B70008069002803D0A74881692046884721E022
:106B80000020A3490870A348007C00280FD03B21B7
:106B90009D48008876DF0446002C07D09D48806918
:106BA000002803D09B4881692046884700BF994848
:106BB0004069002806D00020009096484169684648
:106BC000884700BF38BD70B505461C22294691484C
:106BD000FDF7DAFA002090490870286800280BD0E9
:106BE00008228848296801F085FD86487ADF044636
:106BF000002C08D0204670BD82487BDF0446002C64
:106C000001D02046F7E70020C0437F4908800020DC
:106C10007F490870814A00218148FFF78DFDEAE72E
:106C200010B57F480068FFF7FFFD10BD38B57D48FF
:106C3000FFF776FF002829D17748007800280AD08E
:106C400074484069002820D00020009071484169B4
:106C50006846884719E06E480078002802D16D48E0
:106C6000456801E06B488568002229466C48006849
:106C7000FFF7A9FD0446002C07D06648806900286C
:106C800003D064488169204688470AE0614840692A
:106C9000002806D0012000905E4841696846884778
:106CA00000BF00205C49087038BD10B50446A088BC
:106CB00055490880082221460E315A4801F01AFD34
:106CC0000020534908705348C089002801D1FFF7BC
:106CD000ADFF10BD70B505460020C0434A4908808D
:106CE00000204B4908704E480068FFF79DFD0446A0
:106CF000002C07D047488069002803D045488169A7
:106D00002046884770BD70B50546AC1D20884149B6
:106D1000C989884220D1208B02281DD100BF00BF25
:106D2000A17EE27E120211430846C107C90F002965
:106D300002D0FFF77BFF0FE039480068FFF774FDD2
:106D40000646002E07D033488069002803D031481A
:106D500081693046884700BF70BD10B504460822DF
:106D6000A11D304801F0C6FCFFF760FF10BD10B553
:106D700004462088102806D0112808D012280ED0EA
:106D8000502810D107E02046FFF78FFF0CE0204687
:106D9000FFF7A0FF08E02046FFF7B5FF04E020461C
:106DA000FFF7DBFF00E000BF00BF10BD38B50446B1
:106DB00008222146134801F09DFC12487ADF05465F
:106DC000002D1CD11748FFF7ABFE00280BD1012086
:106DD000114908700B490C48008875DF05460120F1
:106DE0000B4908700BE00B484069002806D00120D1
:106DF0000090084841696846884700BF002528463A
:106E000038BD0000BE200020C8200020FFFF000089
:106E1000C620002020240020BC2000203F6B010061
:106E2000D4200020CA2000200246100C0004F94B98
:106E3000984202D10A8000207047501C01D10520E1
:106E4000FAE70B20F8E77CB50546F34800780A28F6
:106E500001DB04207CBDF0480078002806D1002228
:106E60001146104601F0D4FBEC4908806A46EA4816
:106E70000178EB4801F07AFA0446002C01D0204654
:106E8000E8E76A46E4480178E54801F06FFA04460D
:106E9000002C01D02046DDE704234C222946684619
:106EA00001F0A8FA0446002C01D02046D2E7DB4AC4
:106EB0004C21284601F0ACFBD849088008460088E0
:106EC000D4490843D44909788900D64A5050D24859
:106ED00000788000811800230422684601F08AFAB5
:106EE0000446002C01D02046B4E7CB480078401C73
:106EF000C94908700020ADE77CB50546CA4800784E
:106F00000A2801DB04207CBDC7480078002806D190
:106F100000221146104601F07BFBC44908806A46F6
:106F2000C1480178C24801F021FA0446002C01D082
:106F30002046E8E704231C222946684601F05AFA55
:106F40000446002C01D02046DDE7B84A1C21284623
:106F500001F05EFBB549088008460088AD4908434A
:106F6000B14909788900B34A5050AF480078800091
:106F7000811800230422684601F03CFA0446002CE4
:106F800001D02046BFE7A8480078401CA6490870F9
:106F90000020B8E77FB505469F480078002806D155
:106FA00000221146104601F033FB9C49088002AADA
:106FB000994801789A4801F0D9F90446002C02D08A
:106FC000204604B070BD0023042202A901A801F0EC
:106FD0006FFA0446002C01D02046F2E70023042279
:106FE00002A901A801F064FA0446002C01D0204651
:106FF000E7E769460198FFF717FF0446002C01D028
:107000002046DEE704234C2202A9284601F050FA6C
:107010000446002C01D02046D3E704234C2202A9C9
:10702000284601F045FA0446002C01D02046C8E766
:107030007A4A4C21284601F0EBFA78490880084644
:10704000008869460988884206D173480078401C48
:10705000714908700020B4E70B20B2E77FB5054600
:1070600071480078002806D100221146104601F030
:10707000CFFA6E49088002AA6B4801786C4801F08B
:1070800075F90446002C02D0204604B070BD02AA57
:1070900065480178664801F069F90446002C01D082
:1070A0002046F2E70023042202A901A801F000FA19
:1070B0000446002C01D02046E7E70023042202A961
:1070C00001A801F0F5F90446002C01D02046DCE7C8
:1070D00069460198FFF7A8FE0446002C01D020461F
:1070E000D3E704231C2202A9284601F0E1F9044653
:1070F000002C01D02046C8E704231C2202A9284600
:1071000001F0D6F90446002C01D02046BDE7474ADD
:107110001C21284601F07CFA444908800846008872
:1071200069460988884206D13F480078401C3E499C
:1071300008700020A9E70B20A7E710B50A213848FE
:1071400001F014FA0446002C04D10A21384801F059
:107150000DFA0446204610BD38B5002211461046EF
:1071600001F056FA0090002409E068216143324A98
:1071700088186A464C2101F04BFA0090641C2F4895
:1071800000788442F1DB68460088244909888842F7
:1071900001D0012038BD0020FCE738B5002211469F
:1071A000104601F035FA009000240BE0682161439D
:1071B000214A891808464C306A461C2101F028FAF9
:1071C0000090641C1D4800788442EFDB684600880C
:1071D00016490988884201D0012038BD0020FCE70B
:1071E00070B505461648406E002808D01448406E19
:1071F000142801D9032070BD114C503400E0002444
:107200000F484C30008B82B221460E480088A9DF1F
:10721000F1E7000000002453F4200020E0200020CB
:10722000E4200020B0260020F5200020E2200020ED
:10723000EC200020C0260020D0240020DC200020EC
:1072400068240020DA20002010B500210020FE4A2A
:107250001070FE4A107032E068224A43FC4BD0188E
:10726000427A5207D20F12D0027852B2F74B1B78F3
:10727000DB00F84CE25402461E32F44B1B78DB0074
:107280001B195A60F14A1278521CF04B1A704222B4
:10729000125C022A12D0027852B2EB4B1B78DB0050
:1072A000ED4CE25402464232E74B1B78DB001B19DF
:1072B0005A60E54A1278521CE34B1A70491CE748A1
:1072C00000788142C8DB10BD7CB50546E3480078F4
:1072D000042801DB04207CBD32222946E04801F06D
:1072E00009FAE988DE48001FC18700214166DB48B2
:1072F0000078DB49091F0860D8490978D74A127815
:10730000521CD64B1A7068225143D14A8818682201
:10731000D349091FFCF738FFFFF796FF0120D14939
:10732000087000221146D0480088A9DF0446002CCE
:1073300001D02046CFE7CA48001FFFF784FD04466E
:10734000042C15D1C9484068002811D004200090B1
:10735000C348001F007841B268460171C048001F51
:10736000C18F6846C180C14841686846884703E0CC
:10737000002C01D02046AEE7BC484068002811D060
:1073800000200090B648001F007841B268460171A5
:10739000B348001FC18F6846C180B4484168684641
:1073A000884700BF002096E770B5AD48001F04680D
:1073B000002C23DBA948007884421FDAA948007812
:1073C000002808D068216143A14A88184C22A449AA
:1073D000091FFCF7D9FEA648007800280AD06821CA
:1073E00061439B4A891808464C301C229C4948310D
:1073F000FCF7CAFEFFF728FF002500E0032528461A
:1074000070BD70B50546002412E0682060439049C5
:107410004018C08FA8420AD1682060430A468118EC
:1074200068228F48001FFCF7AFFE002070BD641C6F
:107430008A4800788442E8DB0520F7E770B594B00D
:107440000020864908702FE001A8FFF7A3FD05463C
:10745000052D00D12CE0002D02D0284614B070BDBF
:10746000019E7E480078864201DD0B20F6E7682108
:107470007143774A88184C2201A9FCF785FE7748AA
:10748000007886420FD1002168207043704A80182E
:107490004166491E682070438018C1646F480078B7
:1074A000401C6E49087000BF6C4800780428CBDB94
:1074B00000BF00241DE00DA8FFF7D0FD0546052DF7
:1074C00000D11AE0002D01D02846C7E763490978AA
:1074D0000D98884201DD0B20C0E768220D995143C9
:1074E0005B4A891808464C301C220DA9FCF74CFE5B
:1074F000641C5A4800788442DDDB00BF574804789A
:1075000010E00021C94368206043514A1150002116
:107510006820604380184166491E682060438018D7
:10752000C164641C042CECDBFFF78EFE002095E7A1
:107530007CB50446A0884C4908800020C0434849D7
:10754000091F08600722A11D45483E3001F0D2F80E
:1075500000214348001F4166607BC007C00F1AD05E
:10756000607B4508042D04DAE8003A4908560428EF
:1075700004DB3E488168032088470BE0E800354A79
:10758000105668225043324A811868223448001F3E
:10759000FCF7FAFD21E0002519E0E8002E4940182B
:1075A000466806222E493F31701C01F053F800282E
:1075B0000CD1E800284A105668225043244A81180A
:1075C00068222748001FFCF7DFFD04E06D1C1E4801
:1075D00000788542E1DB00BF00BF2148001F006842
:1075E000401C1AD000201F490870214908701F480C
:1075F0004068002811D0012000901948001F007831
:1076000041B2684601711648001FC18F6846C180AB
:10761000164841686846884700BF7CBD70B505467E
:107620000F48001F0068401C0AD012480078C007AD
:10763000C00F05D00F4800780221084040081FD035
:1076400000221146084817E0DD200020DE2000203F
:10765000D02400209026002070260020DC2000206E
:107660006C240020F7200020DA2000205C24002079
:10767000F8200020F62000200088A9DF044608E05A
:10768000FE48FFF7ADFD0446002C02D10120FC4965
:107690000870002C03D0FB4881682046884770BDE5
:1076A0007CB5044632222146F448001D01F022F840
:1076B000E188F248C1870146096868225143F24ACD
:1076C0008818682101F075F8EC490968682251436F
:1076D000ED4A88186822E949FCF756FDE748FFF7AC
:1076E000B2FB0546042D13D1E648406800280FD0B0
:1076F00004200090E148007841B268460171DF48FB
:10770000C18F6846C180DF4841686846884705E008
:10771000002D03D0DB48816828468847D948406857
:1077200000280FD003200090D448007841B268466A
:107730000171D248C18F6846C180D248416868460D
:10774000884700BF7CBD70B504462078002800D073
:1077500070BDCE480078C007C00F00D1F8E7C74819
:107760000068401C12D1E088FFF74BFE0546002D53
:1077700001D10F2503E02046FFF7A6FD0546002DA9
:1077800003D0C04881682846884705E00120C049E9
:1077900008702046FFF784FF00BFD9E770B50546A3
:1077A000E889FFF72EFE0446002C10D10120B849CD
:1077B00008700022B1490A31B648008881DF0446CA
:1077C000002C1ED0AF4881682046884719E0052C60
:1077D00017D10C22A91DA948363000F08BFF0022DA
:1077E0001146AC48008881DF0446002C03D0A54830
:1077F00081682046884700221146A6480088A9DFF4
:107800000446002C03D09F4881682046884770BDFD
:10781000FEB5044620780607360F20780709012EAA
:1078200001D1012F03DC022E2CD1002F2AD000BF62
:1078300096480078012108439449087000BF8F489A
:10784000FFF7CEFC0546002D04D08E4881682846FF
:10785000884702E001208A4908708A484068002869
:107860000FD0022000908548007841B2684601712F
:107870008248C18F6846C18082484168684688470F
:1078800000BF00BFFEBD10B50446A078C007C00F02
:1078900012D000BF7D480078022108437B49087060
:1078A00000BF76480068401C06D00021734841663E
:1078B0001421503000F07DFF10BD10B5044676480D
:1078C0000078002803D16F48816808208847208805
:1078D000142820D006DC10280BD011280DD0132836
:1078E00025D11CE0172812D018281CD052281ED1F0
:1078F00009E02046FFF71CFE1AE000BF00206349A4
:10790000087000BF14E02046FFF788FE10E0A01DBD
:10791000FFF719FF0CE02046FFF740FF08E0A01D2D
:10792000FFF7B1FF04E0A01DFFF772FF00E000BF0A
:1079300000BF10BD38B500BF57480078002801D1FE
:10794000082038BD00BF4D480068401C1CD01420E2
:1079500000906A46494950314E480088AADF0446E3
:10796000002C01D02046ECE7444800684349C86435
:107970006846018841484166FFF716FD0446002C21
:1079800001D02046DDE700BFFFF7E6FB00281DD051
:107990000A21424800F0EAFD0446002C01D02046AE
:1079A000CFE700203E49087000250BE068216943BD
:1079B000354A8818FFF747FA0446002C01D02046C4
:1079C000BFE76D1C374800788542EFDBFFF7E5FB2A
:1079D00000281FD00A21344800F0C8FD0446002CBE
:1079E00001D02046ADE700203049087000250DE0A9
:1079F00068216943244A891808464C30FFF77CFA0D
:107A00000446002C01D020469BE76D1C25480078D9
:107A10008542EDDB0020C0431E49088017490860FD
:107A2000C8640021154841660020194908701449AE
:107A3000087000BF85E738B51048406E00283FD178
:107A4000142000906A460D49503112480088AADF80
:107A50000446002C01D0204638BD0848006807497C
:107A6000C86468460188054841660146096868227D
:107A70005143054A891808464C3019E06824002013
:107A8000F82000205C240020D0240020F6200020D4
:107A9000F7200020DA200020D8200020E420002059
:107AA000F4200020DC200020EC200020F520002025
:107AB0001C22DF49FCF768FBDD48FFF71DFACBE726
:107AC0000820C9E710B500BFDA480078002801D1C6
:107AD000082010BD00BF0020D7490870D7490870A2
:107AE000D7490870FFF729FBF3E770B504460D4648
:107AF000601C0DD0D0480078844209DA002D07D0F0
:107B000068206043CF49401840308078022801D176
:107B1000072070BD68206043CA4A80180146423180
:107B20000722284600F0E6FD0020F2E710B50246E5
:107B3000002107E0C800C44BC01840688B00C34C4C
:107B4000E050491CC24800788142F3DB002107E085
:107B5000C800C04BC01840688B00BF4CE050491CA7
:107B6000BE4800788142F3DBBC4800781071BB4806
:107B70000078002801D0B84800E000201060B44828
:107B800000781073B2480078002801D0AF4800E0B8
:107B900000209060002010BDF8B506460F46144640
:107BA000069D002C03D0AE48816820468847F8BD6A
:107BB0003EB50546A868002801D107203EBD5020EB
:107BC00001900A200290A7480090A749684600F05B
:107BD00026FB0446002C01D02046EFE72020019030
:107BE000A249684600F01BFB0446002C01D0204649
:107BF000E4E79B4829460EC90EC068218C484C38E2
:107C000000F0D7FD0020C04389494C3908609849ED
:107C100008800020884908708849087088490870E1
:107C200000BF9449087000BF8D48807800281FD09D
:107C3000FFF783FA0446002C01D02046BEE700205F
:107C40007D490870087810E00022D2436821414342
:107C50007C4B5A50002268214143C9184A66521E83
:107C600068214143C918CA64401C0428ECDB06E0C3
:107C7000FFF7E4FB0446002C01D020469EE70120DC
:107C80006C490870002099E710B5024600BF6948AA
:107C90000078002801D1082010BD00BF002901D1C3
:107CA0000E20F9E70888644B1B78984201DA0C2013
:107CB000F2E7614800780880002A01D10020EBE754
:107CC000002007E0682343435E4C1B19DB8F440010
:107CD0001353401C584B1B789842F3DB0020DBE722
:107CE000F8B5074600BF53480078002801D10820A6
:107CF000F8BD00BF0026F64300240AE06820604378
:107D000050494018C08FB84201D166B205E0601CEE
:107D1000C4B2494800788442F0DB00BF701C01D136
:107D20000520E5E7F4B226E0621C68235A43454B80
:107D3000D11868226243D0186822FCF725FA68201F
:107D4000604340490858401E682161433D4A5050F5
:107D50006820604311464018C06C411C09D068205F
:107D6000604311464018C06C401E68216143891869
:107D7000C864601CC4B230480078401EA042D3DC06
:107D80002D490978491E682251432E4A88186821D6
:107D900000F00FFD28480078401E27490870FFF7C3
:107DA000CCF90546002D01D02846A1E70020234943
:107DB00008702349087000240CE068216143214ABF
:107DC0008818FFF740F80546002D01D028468FE7B8
:107DD000601CC4B2184800788442EEDB00240EE038
:107DE00068216143174A891808464C30FFF784F828
:107DF0000546002D01D028467AE7601CC4B20E4823
:107E000000788442ECDBFFF71FFA002070E70146A0
:107E100000BF08480078002801D10820704700BF43
:107E200014480078C007C00F08700020F6E7000073
:107E3000B4240020D8200020DC200020F4200020E2
:107E4000F5200020D0240020902600204C24002083
:107E5000DE200020702600203C240020DD200020B1
:107E60005C240020997B0100E4200020EC2000200D
:107E7000DA200020F620002000231C214143FA4A8A
:107E800053541C21414389184B6002231C21414358
:107E900089188B6000231C2141438918CB601C2169
:107EA000414389180B611C21414389184B611C21F6
:107EB000414389188B61704710B50020EA49091FBA
:107EC000087048708870002403E02046FFF7D4FF54
:107ED000641C1E2CF9D310BDF8B50F25E248001F15
:107EE00000781C214843E0494418E068009020785D
:107EF000042810D18006006981B2009800F05BFC74
:107F0000A1694618304650DF0546002D02D1A06910
:107F1000401CA06126E02078022823D12769A069AF
:107F20003F18A16960694118009808180090A1697C
:107F30006068461A01208002864205D2B20839469E
:107F4000009851DF054605E0FF22013239460098CE
:107F500051DF0546002D04D101218902A069401896
:107F6000A06100BF002D03D10120BF49091F887007
:107F70002846F8BDFFB581B005460E4617460024D9
:107F80000420B949091F8978002945D1B649091F3C
:107F90004978002940D1B44A121F1170114609785E
:107FA0001C225143B04A5554111F09781C225143D9
:107FB000AD4A89180F61111F09781C225143AA4A42
:107FC000891873683268CB608A60A74A121F1278DA
:107FD0001C235A43A44BD218049951601A1F1278DB
:107FE0001C235A43A04BD2180A99516100239E4981
:107FF000091F09781C2251439B4A89188B61111F64
:108000004978491C121F5170FFF766FF002801D004
:10801000112838D1002036E09349091F49781E29DC
:1080200031D09149091F09788F4A121F5278891857
:10803000CCB21E2C02DB21461E39CCB21C2161437E
:10804000894A55541C21614389180F611C216143E1
:10805000891873683268CB608A601C226243824B45
:10806000D218049951601C226243D2180A995161B6
:1080700000221C216143C9188A61191F4978491CD3
:108080001A1F5170002005B0F0BDF8B504467648BF
:10809000001F00781C21484373490D5C081F0078BD
:1080A0001C21484370494018806800016F490E58F0
:1080B000042D01D1002007E06B48001F00781C212F
:1080C00048436949401840686749091F009009788A
:1080D0001C225143644A89180B69111F09781C221C
:1080E0005143614A89180846083022462946B0475C
:1080F000F8BD70B55C48001F00781C2148435A4900
:1081000045186968A86988420FD35749091F08783C
:10811000FFF7B2FE5448001F4078401E5249091F25
:10812000487008460078401C087000244E48001F24
:108130004078002809D0FFF7CFFE0446002C04D079
:10814000112C02D02046FFF7A0FF204670BD70B56D
:10815000054600264448001F8078012829D10020C8
:108160004149091F8870022D02D0032D1ED119E04C
:108170003D48001F00781C2148433B4944182078A3
:10818000042803D16168A069884202D33046FFF712
:108190007CFFFFF7AEFF0646002E02D03046FFF709
:1081A00074FF04E00D20FFF770FF00E000BF00BF88
:1081B00000BF70BD10B5FFF77FFE00202C4908609E
:1081C0002C484069401C08D001221207126991B264
:1081D000284A506900F0EFFA02E0012000074069E8
:1081E000801E01210907096989B2484322490860B4
:1081F00001202249087000200DE0002102011B4BE4
:1082000099500201D21891600201D218D181020165
:10821000D2189181401C0228EFD3002010BDF8B580
:1082200004460D4600BF15480078002801D10820FB
:10823000F8BD00BF002C01D10E20F9E7002D01D1BF
:108240000E20F5E72068002801D10E20F0E701217B
:1082500009076068096989B2884202D860681028F5
:108260000ED20720E4E70000D42600201C2A0020BC
:10827000002100200010001004210020FC2000201C
:10828000A06800281CD0DD484069401C08D00122AD
:108290001207126991B2D94A506900F08CFA02E0D3
:1082A00001200007406901210907096989B2484393
:1082B0006268A1685143D24A12688918884201D283
:1082C0000720B5E7CF480068022801D10420AFE7B6
:1082D000CC4800682860CA4800686860C949686876
:1082E00009680901C84A89184860C64920680968B0
:1082F00009015050C34960680968090189188860FC
:108300002089C049096809018918888100276668A1
:10831000A1684E4300BF781C87B2012000070069A6
:1083200080B2B04205D201200007006980B2361A3F
:1083300000E0002601200007006980B2B04909680A
:108340004018AF49086001200007006980B2B042C0
:10835000E1D9AC4800680001AB494018C781A94881
:108360000068401CA7490860002061E73CB503464F
:1083700000BFA6480078002801D108203CBD00BFFE
:10838000002B01D10E20F9E7002A01D10E20F5E7DC
:108390001868022805D2186800019B4C2058002854
:1083A00001D10720EAE75C68186801940090019CFD
:1083B00018680001944D40198068484320180190C6
:1083C000009800012C4600198089009C2401641942
:1083D000A4686043009C2401641964680019019C2E
:1083E000A04201D80720C9E7019C009854601060A2
:1083F0000020C3E7F8B504460D4616461F4600BFE9
:1084000082480078002801D10820F8BD00BF002D67
:1084100001D10E20F9E7002C01D10E20F5E72068EC
:10842000022805D22068000177490858002801D1A8
:108430000720EAE720680001734940188089216815
:108440000901714A89188968484321680901891816
:10845000496840186168884201D80720D5E7002E96
:1084600006D020680001684940188068B04201D2F7
:108470000720CAE7F01921680901634A8918896849
:10848000884201D90720C0E7284600F0AEF800284E
:1084900004D0E81900F0A9F8002801D11020B4E7B1
:1084A00033462A46214602200097FFF763FDACE7DA
:1084B000F8B507460C4615461E4600BF53480078DF
:1084C000002801D10820F8BD00BF002C01D10E20EA
:1084D000F9E7002F01D10E20F5E72068022805D228
:1084E0002068000148490858002801D10720EAE720
:1084F0002068000144494018808921680901424AE6
:108500008918896848432168090189184968401811
:108510006168884201D80720D5E7002D06D0206881
:108520000001394940188068A84201D20720CAE7F3
:10853000A81921680901344A89188968884201D933
:108540000720C0E7384600F050F8002804D0B819DA
:1085500000F04BF8002801D11020B4E760688119C1
:108560002A46384600F0C6F80020ACE7F8B50446C5
:108570000F4600BF25480078002801D10820F8BD2B
:1085800000BF002C01D10E20F9E72068022805D297
:10859000206800011C490858002801D10720EEE797
:1085A0002068000118494018808921680901164A8D
:1085B0008918896848432168090189184968401861
:1085C0006168884201D80720D9E7206800010E4978
:1085D0004018C689002033460246214600900420F8
:1085E000FFF7C8FC05462846C9E701468807800F03
:1085F00001D1012070470020FCE7000000100010AE
:1086000004210020002100201C2A0020FC20002042
:1086100070B503460C46002A01D10D4D00E01588C7
:108620002846002110E0051206023543A8B25D5C21
:10863000684005062D0F684005034540A8B20506B1
:108640002D0D6D006840491CA142ECD370BD0000A7
:10865000FFFF0000034610B50B439B070FD1042A10
:108660000DD308C810C9121FA342F8D018BA21BAF6
:10867000884201D9012010BD0020C04310BD002A4E
:1086800003D0D30703D0521C07E0002010BD0378AD
:108690000C78401C491C1B1B07D103780C78401C2C
:1086A000491C1B1B01D1921EF1D1184610BD0000C0
:1086B00030B5441C03E00178401C00290DD081072F
:1086C000F9D10B4BDD0104C8D11A91432940FAD0EE
:1086D000001B0A0603D0C01E30BD001B30BD0A04BB
:1086E00001D0801E30BD0902FCD0401E30BD00000C
:1086F00001010101F8B5042A2CD3830712D00B78AD
:10870000491C0370401C521E83070BD00B78491C78
:108710000370401C521E830704D00B78491C037061
:10872000401C521E8B079B0F05D0C91ADF00202367
:10873000DE1B08C90AE0FBF727FDF8BD1D4608C986
:10874000FD401C46B4402C4310C0121F042AF5D231
:10875000F308C91A521EF0D40B78491C0370401C50
:10876000521EEAD40B78491C0370401C521EE4D4FC
:1087700009780170F8BD01E004C0091F0429FBD28B
:108780008B0701D50280801CC90700D0027070479A
:1087900000290BD0C30702D00270401C491E0229D9
:1087A00004D3830702D50280801C891EE3E70022E0
:1087B000EEE70022DFE7002203098B422CD3030AF5
:1087C0008B4211D300239C464EE003460B433CD41E
:1087D000002243088B4231D303098B421CD3030A86
:1087E0008B4201D394463FE0C3098B4201D3CB01B6
:1087F000C01A524183098B4201D38B01C01A5241E6
:1088000043098B4201D34B01C01A524103098B42E9
:1088100001D30B01C01A5241C3088B4201D3CB00D4
:10882000C01A524183088B4201D38B00C01A5241B7
:1088300043088B4201D34B00C01A5241411A00D267
:1088400001465241104670475DE0CA0F00D04942D0
:10885000031000D34042534000229C4603098B4240
:108860002DD3030A8B4212D3FC22890112BA030AC8
:108870008B420CD3890192118B4208D3890192114A
:108880008B4204D389013AD0921100E08909C309CF
:108890008B4201D3CB01C01A524183098B4201D3D1
:1088A0008B01C01A524143098B4201D34B01C01ABC
:1088B000524103098B4201D30B01C01A5241C30834
:1088C0008B4201D3CB00C01A524183088B4201D3A3
:1088D0008B00C01A5241D9D243088B4201D34B00BE
:1088E000C01A5241411A00D20146634652415B1000
:1088F000104601D34042002B00D5494270476346E1
:108900005B1000D3404201B50020C046C04602BD06
:10891000704770477047754600F022F8AE46050074
:1089200069465346C008C000854618B020B5FBF71D
:1089300057FC60BC00274908B6460026C0C5C0C524
:10894000C0C5C0C5C0C5C0C5C0C5C0C5403D490043
:108950008D4670470446C046C0462046FBF7FDFBE7
:10896000004870473C2A002001491820ABBEFEE7B2
:108970002600020070470000141801000F180100C3
:108980000A180100A489010000200020080100004D
:1089900004410100AC8A0100082100209819000060
:1089A000204101000024F400FFFF0000000000004F
:1089B00000000000000000000000000000000000B7
:1089C00000000000000000000000000000000000A7
:1089D0000000000000000000000000000000000097
:1089E0000000000000000000000000000000000087
:1089F0000000000000000000000000000000000077
:108A00000000000000000000000000000000000066
:108A10000000000000000000000000000000000056
:108A20000000000000000000000000000000000046
:108A30000000000000000000000000000000000036
:108A40000000000000000000000000000000000026
:108A50000000000000000000000000000000000016
:108A60000000000000000000000000000000000006
:108A700000000000000000000000000000000000F6
:108A800000000000000000000000000000000000E6
:108A900000000000000000000000000000000000D6
:0C8AA000000000000000000000000000CA
:04000005000140C1F5
:00000001FF
