:020000040001F9
:1060000068300020E96101000362010005620100BF
:106010000000000000000000000000000000000080
:106020000000000000000000000000000762010006
:106030000000000000000000096201000B62010086
:106040000D6201000D6201000D6201000D62010090
:106050000D620100000000000D6201000D620100F0
:106060000D6201000D6201000D6201000D62010070
:106070000D6201000D6201000D6201000D62010060
:106080000D6201000D6201000D6201000D62010050
:106090000D6201000D6201000D6201000D62010040
:1060A0000D6201000D620100000000000000000010
:1060B00000000000000000000000000000000000E0
:1060C00000F002F800F031F80CA030C808382418AD
:1060D0002D18A246671EAB4654465D46AC4201D120
:1060E00000F023F87E460F3E0FCCB6460126334221
:1060F00000D0FB1AA246AB4633431847900200007B
:10610000A0020000103A02D378C878C1FAD852072A
:1061100001D330C830C101D504680C6070471FB589
:10612000C046C0461FBD10B510BD00F0FEF81146B8
:10613000FFF7F5FF00F018F800F016F903B4FFF7C9
:10614000F2FF03BC00F01AF9401E00BF00BF00BF01
:1061500000BF00BF00BF00BF00BF00BF00BF00BF47
:1061600000BFF1D170470000082000F019F80920A5
:1061700000F016F813E0082000F020F8092000F0E5
:1061800018F8FF20F53000F021F8092000F016F88B
:10619000082000F00EF8FF20F53000F017F8EAE7CD
:1061A00003210522120707231B02D2188300D150B6
:1061B000704701218140044A91607047012181406C
:1061C000014AD160704700000005005001B505E0AC
:1061D0000098401E00900348FFF7B6FF0098002883
:1061E000F6D108BDE703000003210C4802680A430A
:1061F00002600B4802680A4302600A4880470A4866
:106200000047FEE7FEE7FEE7FEE7FEE7FEE70000E9
:1062100006480749074A084B70470000240500401C
:1062200054050040E1620100C160010068200020C7
:106230006830002068280020682800203248334950
:10624000086070473248008CC0B2012812D1304833
:10625000808C0007000F00280CD12D48806AF021A7
:106260000840402806D12A48C06A0840002801D1C9
:10627000012070470020FCE72548008CC0B20128AF
:106280002CD12348808C0007000F002826D12048FD
:10629000806AF0210840002806D11D48C06A0840E5
:1062A000002801D1012070471948806AF021084078
:1062B000102806D11648C06A0840002801D10120E4
:1062C000F1E71348806AF0210840302806D11048D1
:1062D000C06A0840002801D10120E4E70020E2E77D
:1062E00010B5FFF7C9FF002805D00A480A494860E1
:1062F000C8130A498861FFF7A5FF002802D00120D2
:106300000749886010BD00000024F4000020002030
:10631000C00F00F0DFFF07C000050040006C004028
:1063200000060040704770477047754600F022F83D
:10633000AE46050069465346C008C000854618B001
:1063400020B5FFF765FF60BC00274908B646002668
:10635000C0C5C0C5C0C5C0C5C0C5C0C5C0C5C0C515
:10636000403D49008D4670470446C046C046204621
:10637000FFF7E4FE00487047042000200149182080
:10638000ABBEFEE726000200704700009C630100E0
:106390000020002004000000046101000024F4003B
:04000005000160C1D5
:00000001FF
